{
  "_format": "hh-sol-artifact-1",
  "contractName": "RentToOwnAdapter",
  "sourceName": "shared/contracts/RentToOwnAdapter.sol",
  "abi": [
    {
      "inputs": [
        {
          "internalType": "address",
          "name": "_usdc",
          "type": "address"
        }
      ],
      "stateMutability": "nonpayable",
      "type": "constructor"
    },
    {
      "anonymous": false,
      "inputs": [
        {
          "indexed": true,
          "internalType": "address",
          "name": "previousOwner",
          "type": "address"
        },
        {
          "indexed": true,
          "internalType": "address",
          "name": "newOwner",
          "type": "address"
        }
      ],
      "name": "OwnershipTransferred",
      "type": "event"
    },
    {
      "anonymous": false,
      "inputs": [
        {
          "indexed": true,
          "internalType": "bytes32",
          "name": "scheduleId",
          "type": "bytes32"
        },
        {
          "indexed": true,
          "internalType": "address",
          "name": "tenant",
          "type": "address"
        },
        {
          "indexed": false,
          "internalType": "uint256",
          "name": "rentAmount",
          "type": "uint256"
        },
        {
          "indexed": false,
          "internalType": "uint256",
          "name": "sharesEarned",
          "type": "uint256"
        }
      ],
      "name": "RentPaidWithEquity",
      "type": "event"
    },
    {
      "anonymous": false,
      "inputs": [
        {
          "indexed": true,
          "internalType": "bytes32",
          "name": "scheduleId",
          "type": "bytes32"
        },
        {
          "indexed": true,
          "internalType": "address",
          "name": "tenant",
          "type": "address"
        },
        {
          "indexed": true,
          "internalType": "address",
          "name": "propertyShare",
          "type": "address"
        },
        {
          "indexed": false,
          "internalType": "uint256",
          "name": "monthlyRent",
          "type": "uint256"
        },
        {
          "indexed": false,
          "internalType": "uint256",
          "name": "targetOwnershipPercentage",
          "type": "uint256"
        }
      ],
      "name": "RentToOwnScheduleCreated",
      "type": "event"
    },
    {
      "inputs": [
        {
          "internalType": "address",
          "name": "propertyShare",
          "type": "address"
        },
        {
          "internalType": "uint256",
          "name": "targetOwnershipBasisPoints",
          "type": "uint256"
        },
        {
          "internalType": "uint256",
          "name": "targetMonths",
          "type": "uint256"
        }
      ],
      "name": "calculateRentForOwnership",
      "outputs": [
        {
          "internalType": "uint256",
          "name": "monthlyRent",
          "type": "uint256"
        }
      ],
      "stateMutability": "pure",
      "type": "function"
    },
    {
      "inputs": [
        {
          "internalType": "address",
          "name": "_tenant",
          "type": "address"
        },
        {
          "internalType": "address",
          "name": "_landlord",
          "type": "address"
        },
        {
          "internalType": "contract PropertyShare",
          "name": "_propertyShare",
          "type": "address"
        },
        {
          "internalType": "uint256",
          "name": "_monthlyRent",
          "type": "uint256"
        },
        {
          "internalType": "uint256",
          "name": "_targetOwnershipPercentage",
          "type": "uint256"
        },
        {
          "internalType": "uint256",
          "name": "_targetMonths",
          "type": "uint256"
        }
      ],
      "name": "createRentToOwnSchedule",
      "outputs": [
        {
          "internalType": "bytes32",
          "name": "",
          "type": "bytes32"
        }
      ],
      "stateMutability": "nonpayable",
      "type": "function"
    },
    {
      "inputs": [
        {
          "internalType": "address",
          "name": "tenant",
          "type": "address"
        },
        {
          "internalType": "address",
          "name": "propertyShare",
          "type": "address"
        }
      ],
      "name": "getTenantProgress",
      "outputs": [
        {
          "internalType": "uint256",
          "name": "totalRentPaid",
          "type": "uint256"
        },
        {
          "internalType": "uint256",
          "name": "sharesOwned",
          "type": "uint256"
        },
        {
          "internalType": "uint256",
          "name": "ownershipPercentage",
          "type": "uint256"
        }
      ],
      "stateMutability": "view",
      "type": "function"
    },
    {
      "inputs": [
        {
          "internalType": "address",
          "name": "tenant",
          "type": "address"
        }
      ],
      "name": "getTenantSchedules",
      "outputs": [
        {
          "internalType": "bytes32[]",
          "name": "",
          "type": "bytes32[]"
        }
      ],
      "stateMutability": "view",
      "type": "function"
    },
    {
      "inputs": [],
      "name": "owner",
      "outputs": [
        {
          "internalType": "address",
          "name": "",
          "type": "address"
        }
      ],
      "stateMutability": "view",
      "type": "function"
    },
    {
      "inputs": [
        {
          "internalType": "bytes32",
          "name": "scheduleId",
          "type": "bytes32"
        },
        {
          "internalType": "uint256",
          "name": "rentAmount",
          "type": "uint256"
        }
      ],
      "name": "processRentPayment",
      "outputs": [],
      "stateMutability": "nonpayable",
      "type": "function"
    },
    {
      "inputs": [],
      "name": "renounceOwnership",
      "outputs": [],
      "stateMutability": "nonpayable",
      "type": "function"
    },
    {
      "inputs": [
        {
          "internalType": "bytes32",
          "name": "",
          "type": "bytes32"
        }
      ],
      "name": "schedules",
      "outputs": [
        {
          "internalType": "address",
          "name": "tenant",
          "type": "address"
        },
        {
          "internalType": "address",
          "name": "landlord",
          "type": "address"
        },
        {
          "internalType": "contract PropertyShare",
          "name": "propertyShare",
          "type": "address"
        },
        {
          "internalType": "uint256",
          "name": "monthlyRent",
          "type": "uint256"
        },
        {
          "internalType": "uint256",
          "name": "targetOwnershipPercentage",
          "type": "uint256"
        },
        {
          "internalType": "uint256",
          "name": "targetMonths",
          "type": "uint256"
        },
        {
          "internalType": "uint256",
          "name": "startTime",
          "type": "uint256"
        },
        {
          "internalType": "bool",
          "name": "active",
          "type": "bool"
        }
      ],
      "stateMutability": "view",
      "type": "function"
    },
    {
      "inputs": [
        {
          "internalType": "bytes32",
          "name": "scheduleId",
          "type": "bytes32"
        }
      ],
      "name": "stopSchedule",
      "outputs": [],
      "stateMutability": "nonpayable",
      "type": "function"
    },
    {
      "inputs": [
        {
          "internalType": "address",
          "name": "",
          "type": "address"
        },
        {
          "internalType": "address",
          "name": "",
          "type": "address"
        }
      ],
      "name": "tenantProgress",
      "outputs": [
        {
          "internalType": "uint256",
          "name": "",
          "type": "uint256"
        }
      ],
      "stateMutability": "view",
      "type": "function"
    },
    {
      "inputs": [
        {
          "internalType": "address",
          "name": "",
          "type": "address"
        },
        {
          "internalType": "uint256",
          "name": "",
          "type": "uint256"
        }
      ],
      "name": "tenantSchedules",
      "outputs": [
        {
          "internalType": "bytes32",
          "name": "",
          "type": "bytes32"
        }
      ],
      "stateMutability": "view",
      "type": "function"
    },
    {
      "inputs": [
        {
          "internalType": "address",
          "name": "newOwner",
          "type": "address"
        }
      ],
      "name": "transferOwnership",
      "outputs": [],
      "stateMutability": "nonpayable",
      "type": "function"
    },
    {
      "inputs": [],
      "name": "usdc",
      "outputs": [
        {
          "internalType": "contract IERC20",
          "name": "",
          "type": "address"
        }
      ],
      "stateMutability": "view",
      "type": "function"
    }
  ],
  "bytecode": "0x60a060405234801561001057600080fd5b5060405161104338038061104383398101604081905261002f91610099565b61003833610049565b6001600160a01b03166080526100c9565b600080546001600160a01b038381166001600160a01b0319831681178455604051919092169283917f8be0079c531659141344cd1fd0a4f28419497f9722a3daafe3b4186f6b6457e09190a35050565b6000602082840312156100ab57600080fd5b81516001600160a01b03811681146100c257600080fd5b9392505050565b608051610f586100eb6000396000818161013f01526103b50152610f586000f3fe608060405234801561001057600080fd5b50600436106100cf5760003560e01c8063715018a61161008c578063d1e16bfa11610066578063d1e16bfa146101d8578063f2fde38b14610289578063f37e7b301461029c578063fd77392b146102ca57600080fd5b8063715018a61461019f5780637efbee18146101a75780638da5cb5b146101c757600080fd5b806302b048e0146100d45780630ca05851146100e95780632bad76361461010f5780633e413bee1461013a5780634a0d0039146101795780636d02c1971461018c575b600080fd5b6100e76100e2366004610cc8565b6102dd565b005b6100fc6100f7366004610cff565b61056c565b6040519081526020015b60405180910390f35b6100fc61011d366004610d34565b600360209081526000928352604080842090915290825290205481565b6101617f000000000000000000000000000000000000000000000000000000000000000081565b6040516001600160a01b039091168152602001610106565b6100e7610187366004610d6d565b6105b3565b6100fc61019a366004610d86565b61062e565b6100e76109ef565b6101ba6101b5366004610deb565b610a03565b6040516101069190610e0f565b6000546001600160a01b0316610161565b61023d6101e6366004610d6d565b6001602081905260009182526040909120805491810154600282015460038301546004840154600585015460068601546007909601546001600160a01b039788169795861696959094169492939192909160ff1688565b604080516001600160a01b03998a168152978916602089015295909716948601949094526060850192909252608084015260a083015260c082015290151560e082015261010001610106565b6100e7610297366004610deb565b610a6f565b6102af6102aa366004610d34565b610ae8565b60408051938452602084019290925290820152606001610106565b6100fc6102d8366004610e53565b610bed565b6000828152600160205260409020600781015460ff1661033a5760405162461bcd60e51b81526020600482015260136024820152725363686564756c65206e6f742061637469766560681b60448201526064015b60405180910390fd5b600082116103805760405162461bcd60e51b8152602060048201526013602482015272125b9d985b1a59081c995b9d08185b5bdd5b9d606a1b6044820152606401610331565b805460018201546040516323b872dd60e01b81526001600160a01b0392831660048201529082166024820152604481018490527f0000000000000000000000000000000000000000000000000000000000000000909116906323b872dd906064016020604051808303816000875af1158015610400573d6000803e3d6000fd5b505050506040513d601f19601f820116820180604052508101906104249190610e7f565b6104675760405162461bcd60e51b81526020600482015260146024820152731554d110c81d1c985b9cd9995c8819985a5b195960621b6044820152606401610331565b80546001600160a01b0390811660009081526003602090815260408083206002860154909416835292905290812080548492906104a5908490610eb7565b9091555050600281015481546040516313a9da2960e21b81526001600160a01b03918216600482015260248101859052911690634ea768a490604401600060405180830381600087803b1580156104fb57600080fd5b505af115801561050f573d6000803e3d6000fd5b505082546001600160a01b031691508490507f0482aaba0b1fc8de37b4745920bf8a03c8063f7d251be14cda1a9801c87ac1868461054f61271082610ed0565b6040805192835260208301919091520160405180910390a3505050565b600080606461058385670de0b6b3a7640000610ef2565b61058d9190610ed0565b9050600061059d82612710610ef2565b90506105a98482610ed0565b9695505050505050565b600081815260016020526040902080546001600160a01b03163314806105e357506000546001600160a01b031633145b6106205760405162461bcd60e51b815260206004820152600e60248201526d139bdd08185d5d1a1bdc9a5e995960921b6044820152606401610331565b600701805460ff1916905550565b60006001600160a01b0387166106775760405162461bcd60e51b815260206004820152600e60248201526d125b9d985b1a59081d195b985b9d60921b6044820152606401610331565b6001600160a01b0386166106c05760405162461bcd60e51b815260206004820152601060248201526f125b9d985b1a59081b185b991b1bdc9960821b6044820152606401610331565b6001600160a01b03851661070f5760405162461bcd60e51b8152602060048201526016602482015275496e76616c69642070726f706572747920736861726560501b6044820152606401610331565b600084116107555760405162461bcd60e51b8152602060048201526013602482015272125b9d985b1a59081c995b9d08185b5bdd5b9d606a1b6044820152606401610331565b60008311801561076757506127108311155b6107b35760405162461bcd60e51b815260206004820152601c60248201527f496e76616c6964206f776e6572736869702070657263656e74616765000000006044820152606401610331565b6040516bffffffffffffffffffffffff19606089811b8216602084015287901b16603482015242604882015260688101859052600090608801604051602081830303815290604052805190602001209050604051806101000160405280896001600160a01b03168152602001886001600160a01b03168152602001876001600160a01b03168152602001868152602001858152602001848152602001428152602001600115158152506001600083815260200190815260200160002060008201518160000160006101000a8154816001600160a01b0302191690836001600160a01b0316021790555060208201518160010160006101000a8154816001600160a01b0302191690836001600160a01b0316021790555060408201518160020160006101000a8154816001600160a01b0302191690836001600160a01b03160217905550606082015181600301556080820151816004015560a0820151816005015560c0820151816006015560e08201518160070160006101000a81548160ff02191690831515021790555090505060026000896001600160a01b03166001600160a01b03168152602001908152602001600020819080600181540180825580915050600190039060005260206000200160009091909190915055856001600160a01b0316886001600160a01b0316827f79a577a243a96da7b2e1cf187715d78ebdd2bd49c45b775ce9d9f45d44da289588886040516109dc929190918252602082015260400190565b60405180910390a4979650505050505050565b6109f7610c1e565b610a016000610c78565b565b6001600160a01b038116600090815260026020908152604091829020805483518184028101840190945280845260609392830182828015610a6357602002820191906000526020600020905b815481526020019060010190808311610a4f575b50505050509050919050565b610a77610c1e565b6001600160a01b038116610adc5760405162461bcd60e51b815260206004820152602660248201527f4f776e61626c653a206e6577206f776e657220697320746865207a65726f206160448201526564647265737360d01b6064820152608401610331565b610ae581610c78565b50565b6001600160a01b038281166000818152600360209081526040808320948616808452949091528082205490516370a0823160e01b815260048101939093529290918291906370a0823190602401602060405180830381865afa158015610b52573d6000803e3d6000fd5b505050506040513d601f19601f82011682018060405250810190610b769190610f09565b60405163145263fd60e31b81526001600160a01b0387811660048301529193509085169063a2931fe890602401602060405180830381865afa158015610bc0573d6000803e3d6000fd5b505050506040513d601f19601f82011682018060405250810190610be49190610f09565b90509250925092565b60026020528160005260406000208181548110610c0957600080fd5b90600052602060002001600091509150505481565b6000546001600160a01b03163314610a015760405162461bcd60e51b815260206004820181905260248201527f4f776e61626c653a2063616c6c6572206973206e6f7420746865206f776e65726044820152606401610331565b600080546001600160a01b038381166001600160a01b0319831681178455604051919092169283917f8be0079c531659141344cd1fd0a4f28419497f9722a3daafe3b4186f6b6457e09190a35050565b60008060408385031215610cdb57600080fd5b50508035926020909101359150565b6001600160a01b0381168114610ae557600080fd5b600080600060608486031215610d1457600080fd5b8335610d1f81610cea565b95602085013595506040909401359392505050565b60008060408385031215610d4757600080fd5b8235610d5281610cea565b91506020830135610d6281610cea565b809150509250929050565b600060208284031215610d7f57600080fd5b5035919050565b60008060008060008060c08789031215610d9f57600080fd5b8635610daa81610cea565b95506020870135610dba81610cea565b94506040870135610dca81610cea565b959894975094956060810135955060808101359460a0909101359350915050565b600060208284031215610dfd57600080fd5b8135610e0881610cea565b9392505050565b6020808252825182820181905260009190848201906040850190845b81811015610e4757835183529284019291840191600101610e2b565b50909695505050505050565b60008060408385031215610e6657600080fd5b8235610e7181610cea565b946020939093013593505050565b600060208284031215610e9157600080fd5b81518015158114610e0857600080fd5b634e487b7160e01b600052601160045260246000fd5b80820180821115610eca57610eca610ea1565b92915050565b600082610eed57634e487b7160e01b600052601260045260246000fd5b500490565b8082028115828204841417610eca57610eca610ea1565b600060208284031215610f1b57600080fd5b505191905056fea2646970667358221220ff35f06707d3988428f220d5ce9ac132ebbe35a058c53dcd2be12be4b3d9f1d964736f6c63430008130033",
  "linkReferences": {},
  "deployedLinkReferences": {}
}