{
  "_format": "hh-sol-artifact-1",
  "contractName": "RealEstateFactory",
  "sourceName": "shared/contracts/MockRealEstate.sol",
  "abi": [
    {
      "anonymous": false,
      "inputs": [
        {
          "indexed": true,
          "internalType": "address",
          "name": "previousOwner",
          "type": "address"
        },
        {
          "indexed": true,
          "internalType": "address",
          "name": "newOwner",
          "type": "address"
        }
      ],
      "name": "OwnershipTransferred",
      "type": "event"
    },
    {
      "anonymous": false,
      "inputs": [
        {
          "indexed": true,
          "internalType": "address",
          "name": "contractAddress",
          "type": "address"
        },
        {
          "indexed": false,
          "internalType": "string",
          "name": "name",
          "type": "string"
        },
        {
          "indexed": false,
          "internalType": "string",
          "name": "location",
          "type": "string"
        },
        {
          "indexed": false,
          "internalType": "uint256",
          "name": "totalValue",
          "type": "uint256"
        },
        {
          "indexed": false,
          "internalType": "uint256",
          "name": "pricePerShare",
          "type": "uint256"
        }
      ],
      "name": "PropertyDeployed",
      "type": "event"
    },
    {
      "inputs": [
        {
          "internalType": "uint256",
          "name": "_propertyIndex",
          "type": "uint256"
        }
      ],
      "name": "addYieldToProperty",
      "outputs": [],
      "stateMutability": "payable",
      "type": "function"
    },
    {
      "inputs": [
        {
          "internalType": "uint256[]",
          "name": "_propertyIndices",
          "type": "uint256[]"
        },
        {
          "internalType": "uint256[]",
          "name": "_amounts",
          "type": "uint256[]"
        }
      ],
      "name": "batchAddYield",
      "outputs": [],
      "stateMutability": "payable",
      "type": "function"
    },
    {
      "inputs": [
        {
          "internalType": "string",
          "name": "_name",
          "type": "string"
        },
        {
          "internalType": "string",
          "name": "_symbol",
          "type": "string"
        },
        {
          "internalType": "string",
          "name": "_location",
          "type": "string"
        },
        {
          "internalType": "string",
          "name": "_propertyType",
          "type": "string"
        },
        {
          "internalType": "uint256",
          "name": "_totalValue",
          "type": "uint256"
        },
        {
          "internalType": "uint256",
          "name": "_totalShares",
          "type": "uint256"
        },
        {
          "internalType": "uint256",
          "name": "_pricePerShare",
          "type": "uint256"
        },
        {
          "internalType": "uint256",
          "name": "_annualYieldRate",
          "type": "uint256"
        }
      ],
      "name": "deployProperty",
      "outputs": [
        {
          "internalType": "address",
          "name": "",
          "type": "address"
        }
      ],
      "stateMutability": "nonpayable",
      "type": "function"
    },
    {
      "inputs": [],
      "name": "getAllProperties",
      "outputs": [
        {
          "components": [
            {
              "internalType": "address",
              "name": "contractAddress",
              "type": "address"
            },
            {
              "internalType": "string",
              "name": "name",
              "type": "string"
            },
            {
              "internalType": "string",
              "name": "location",
              "type": "string"
            },
            {
              "internalType": "uint256",
              "name": "totalValue",
              "type": "uint256"
            },
            {
              "internalType": "uint256",
              "name": "pricePerShare",
              "type": "uint256"
            },
            {
              "internalType": "uint256",
              "name": "annualYieldRate",
              "type": "uint256"
            },
            {
              "internalType": "bool",
              "name": "isActive",
              "type": "bool"
            }
          ],
          "internalType": "struct RealEstateFactory.DeployedProperty[]",
          "name": "",
          "type": "tuple[]"
        }
      ],
      "stateMutability": "view",
      "type": "function"
    },
    {
      "inputs": [
        {
          "internalType": "uint256",
          "name": "_index",
          "type": "uint256"
        }
      ],
      "name": "getProperty",
      "outputs": [
        {
          "components": [
            {
              "internalType": "address",
              "name": "contractAddress",
              "type": "address"
            },
            {
              "internalType": "string",
              "name": "name",
              "type": "string"
            },
            {
              "internalType": "string",
              "name": "location",
              "type": "string"
            },
            {
              "internalType": "uint256",
              "name": "totalValue",
              "type": "uint256"
            },
            {
              "internalType": "uint256",
              "name": "pricePerShare",
              "type": "uint256"
            },
            {
              "internalType": "uint256",
              "name": "annualYieldRate",
              "type": "uint256"
            },
            {
              "internalType": "bool",
              "name": "isActive",
              "type": "bool"
            }
          ],
          "internalType": "struct RealEstateFactory.DeployedProperty",
          "name": "",
          "type": "tuple"
        }
      ],
      "stateMutability": "view",
      "type": "function"
    },
    {
      "inputs": [],
      "name": "getPropertyCount",
      "outputs": [
        {
          "internalType": "uint256",
          "name": "",
          "type": "uint256"
        }
      ],
      "stateMutability": "view",
      "type": "function"
    },
    {
      "inputs": [],
      "name": "owner",
      "outputs": [
        {
          "internalType": "address",
          "name": "",
          "type": "address"
        }
      ],
      "stateMutability": "view",
      "type": "function"
    },
    {
      "inputs": [
        {
          "internalType": "uint256",
          "name": "",
          "type": "uint256"
        }
      ],
      "name": "properties",
      "outputs": [
        {
          "internalType": "address",
          "name": "contractAddress",
          "type": "address"
        },
        {
          "internalType": "string",
          "name": "name",
          "type": "string"
        },
        {
          "internalType": "string",
          "name": "location",
          "type": "string"
        },
        {
          "internalType": "uint256",
          "name": "totalValue",
          "type": "uint256"
        },
        {
          "internalType": "uint256",
          "name": "pricePerShare",
          "type": "uint256"
        },
        {
          "internalType": "uint256",
          "name": "annualYieldRate",
          "type": "uint256"
        },
        {
          "internalType": "bool",
          "name": "isActive",
          "type": "bool"
        }
      ],
      "stateMutability": "view",
      "type": "function"
    },
    {
      "inputs": [],
      "name": "renounceOwnership",
      "outputs": [],
      "stateMutability": "nonpayable",
      "type": "function"
    },
    {
      "inputs": [
        {
          "internalType": "address",
          "name": "newOwner",
          "type": "address"
        }
      ],
      "name": "transferOwnership",
      "outputs": [],
      "stateMutability": "nonpayable",
      "type": "function"
    },
    {
      "inputs": [
        {
          "internalType": "address",
          "name": "",
          "type": "address"
        },
        {
          "internalType": "uint256",
          "name": "",
          "type": "uint256"
        }
      ],
      "name": "userInvestments",
      "outputs": [
        {
          "internalType": "uint256",
          "name": "",
          "type": "uint256"
        }
      ],
      "stateMutability": "view",
      "type": "function"
    }
  ],
  "bytecode": "0x608060405234801561001057600080fd5b5061001a3361001f565b61006f565b600080546001600160a01b038381166001600160a01b0319831681178455604051919092169283917f8be0079c531659141344cd1fd0a4f28419497f9722a3daafe3b4186f6b6457e09190a35050565b613c828061007e6000396000f3fe608060405260043610620000a95760003560e01c80638da5cb5b116200006c5780638da5cb5b14620001865780639244adcd14620001a6578063937c755c14620001cb5780639f10298414620001e2578063f2fde38b14620001f9578063f7b10808146200021e57600080fd5b806312f37a1414620000ae57806332665ffb14620000f05780633d51402c1462000124578063715018a6146200014b5780637326b9011462000165575b600080fd5b348015620000bb57600080fd5b50620000d3620000cd36600462000f10565b62000258565b6040516001600160a01b0390911681526020015b60405180910390f35b348015620000fd57600080fd5b50620001156200010f36600462000fee565b62000476565b604051620000e79190620010cb565b3480156200013157600080fd5b506200013c6200069d565b604051620000e79190620010e7565b3480156200015857600080fd5b50620001636200087b565b005b3480156200017257600080fd5b506001545b604051908152602001620000e7565b3480156200019357600080fd5b506000546001600160a01b0316620000d3565b348015620001b357600080fd5b5062000177620001c53660046200116a565b62000893565b62000163620001dc36600462001220565b620008c5565b62000163620001f336600462000fee565b62000ae0565b3480156200020657600080fd5b5062000163620002183660046200128b565b62000b99565b3480156200022b57600080fd5b50620002436200023d36600462000fee565b62000c18565b604051620000e79796959493929190620012a9565b60006200026462000d95565b600089898989898989896040516200027c9062000e41565b6200028f9897969594939291906200130c565b604051809103906000f080158015620002ac573d6000803e3d6000fd5b5060405163f2fde38b60e01b81523060048201529091506001600160a01b0382169063f2fde38b90602401600060405180830381600087803b158015620002f257600080fd5b505af115801562000307573d6000803e3d6000fd5b50506040805160e0810182526001600160a01b038581168252602082018f81529282018d9052606082018b90526080820189905260a08201889052600160c083018190528054808201825560009190915282517fb10e2d527612073b26eecdfd717e6a320cf44b4afac2b0732d9fcbe2b7fa0cf6600790920291820180546001600160a01b03191691909316178255925191945092507fb10e2d527612073b26eecdfd717e6a320cf44b4afac2b0732d9fcbe2b7fa0cf790910190620003ce90826200141b565b5060408201516002820190620003e590826200141b565b50606082015160038201556080820151600482015560a0820151600582015560c0909101516006909101805460ff19169115159190911790556040516001600160a01b038216907ff53f1fc5ad7dfb313c844a79f486ff89a2048643cbe53601fa24a224bebe6cdf9062000461908d908c908b908a90620014e8565b60405180910390a29998505050505050505050565b620004c26040518060e0016040528060006001600160a01b0316815260200160608152602001606081526020016000815260200160008152602001600081526020016000151581525090565b6001548210620004ef5760405162461bcd60e51b8152600401620004e69062001525565b60405180910390fd5b600182815481106200050557620005056200155c565b60009182526020918290206040805160e0810190915260079092020180546001600160a01b03168252600181018054929391929184019162000547906200138c565b80601f016020809104026020016040519081016040528092919081815260200182805462000575906200138c565b8015620005c65780601f106200059a57610100808354040283529160200191620005c6565b820191906000526020600020905b815481529060010190602001808311620005a857829003601f168201915b50505050508152602001600282018054620005e1906200138c565b80601f01602080910402602001604051908101604052809291908181526020018280546200060f906200138c565b8015620006605780601f10620006345761010080835404028352916020019162000660565b820191906000526020600020905b8154815290600101906020018083116200064257829003601f168201915b505050918352505060038201546020820152600482015460408201526005820154606082015260069091015460ff16151560809091015292915050565b60606001805480602002602001604051908101604052809291908181526020016000905b82821015620008725760008481526020908190206040805160e081019091526007850290910180546001600160a01b0316825260018101805492939192918401916200070d906200138c565b80601f01602080910402602001604051908101604052809291908181526020018280546200073b906200138c565b80156200078c5780601f1062000760576101008083540402835291602001916200078c565b820191906000526020600020905b8154815290600101906020018083116200076e57829003601f168201915b50505050508152602001600282018054620007a7906200138c565b80601f0160208091040260200160405190810160405280929190818152602001828054620007d5906200138c565b8015620008265780601f10620007fa5761010080835404028352916020019162000826565b820191906000526020600020905b8154815290600101906020018083116200080857829003601f168201915b50505091835250506003820154602080830191909152600483015460408301526005830154606083015260069092015460ff1615156080909101529082526001929092019101620006c1565b50505050905090565b6200088562000d95565b62000891600062000df1565b565b60026020528160005260406000208181548110620008b057600080fd5b90600052602060002001600091509150505481565b620008cf62000d95565b80518251146200091b5760405162461bcd60e51b8152602060048201526016602482015275082e4e4c2f2e640d8cadccee8d040dad2e6dac2e8c6d60531b6044820152606401620004e6565b6000805b82518110156200096a578281815181106200093e576200093e6200155c565b60200260200101518262000953919062001588565b9150806200096181620015a4565b9150506200091f565b5080341015620009b55760405162461bcd60e51b8152602060048201526015602482015274125b9cdd59999a58da595b9d08115512081cd95b9d605a1b6044820152606401620004e6565b60005b835181101562000ada576001548451859083908110620009dc57620009dc6200155c565b60200260200101511062000a045760405162461bcd60e51b8152600401620004e69062001525565b6000600185838151811062000a1d5762000a1d6200155c565b60200260200101518154811062000a385762000a386200155c565b600091825260209091206007909102015484516001600160a01b03909116915081906390d322c29086908590811062000a755762000a756200155c565b60200260200101516040518263ffffffff1660e01b81526004016000604051808303818588803b15801562000aa957600080fd5b505af115801562000abe573d6000803e3d6000fd5b505050505050808062000ad190620015a4565b915050620009b8565b50505050565b62000aea62000d95565b600154811062000b0e5760405162461bcd60e51b8152600401620004e69062001525565b60006001828154811062000b265762000b266200155c565b6000918252602082206007909102015460408051634869916160e11b815290516001600160a01b03909216935083926390d322c2923492600480820193929182900301818588803b15801562000b7b57600080fd5b505af115801562000b90573d6000803e3d6000fd5b50505050505050565b62000ba362000d95565b6001600160a01b03811662000c0a5760405162461bcd60e51b815260206004820152602660248201527f4f776e61626c653a206e6577206f776e657220697320746865207a65726f206160448201526564647265737360d01b6064820152608401620004e6565b62000c158162000df1565b50565b6001818154811062000c2957600080fd5b6000918252602090912060079091020180546001820180546001600160a01b0390921693509062000c5a906200138c565b80601f016020809104026020016040519081016040528092919081815260200182805462000c88906200138c565b801562000cd95780601f1062000cad5761010080835404028352916020019162000cd9565b820191906000526020600020905b81548152906001019060200180831162000cbb57829003601f168201915b50505050509080600201805462000cf0906200138c565b80601f016020809104026020016040519081016040528092919081815260200182805462000d1e906200138c565b801562000d6f5780601f1062000d435761010080835404028352916020019162000d6f565b820191906000526020600020905b81548152906001019060200180831162000d5157829003601f168201915b505050506003830154600484015460058501546006909501549394919390925060ff1687565b6000546001600160a01b03163314620008915760405162461bcd60e51b815260206004820181905260248201527f4f776e61626c653a2063616c6c6572206973206e6f7420746865206f776e65726044820152606401620004e6565b600080546001600160a01b038381166001600160a01b0319831681178455604051919092169283917f8be0079c531659141344cd1fd0a4f28419497f9722a3daafe3b4186f6b6457e09190a35050565b61268c80620015c183390190565b634e487b7160e01b600052604160045260246000fd5b604051601f8201601f1916810167ffffffffffffffff8111828210171562000e915762000e9162000e4f565b604052919050565b600082601f83011262000eab57600080fd5b813567ffffffffffffffff81111562000ec85762000ec862000e4f565b62000edd601f8201601f191660200162000e65565b81815284602083860101111562000ef357600080fd5b816020850160208301376000918101602001919091529392505050565b600080600080600080600080610100898b03121562000f2e57600080fd5b883567ffffffffffffffff8082111562000f4757600080fd5b62000f558c838d0162000e99565b995060208b013591508082111562000f6c57600080fd5b62000f7a8c838d0162000e99565b985060408b013591508082111562000f9157600080fd5b62000f9f8c838d0162000e99565b975060608b013591508082111562000fb657600080fd5b5062000fc58b828c0162000e99565b989b979a50959860808101359760a0820135975060c0820135965060e090910135945092505050565b6000602082840312156200100157600080fd5b5035919050565b6000815180845260005b81811015620010305760208185018101518683018201520162001012565b506000602082860101526020601f19601f83011685010191505092915050565b60018060a01b0381511682526000602082015160e060208501526200107960e085018262001008565b90506040830151848203604086015262001094828262001008565b915050606083015160608501526080830151608085015260a083015160a085015260c0830151151560c08501528091505092915050565b602081526000620010e0602083018462001050565b9392505050565b6000602080830181845280855180835260408601915060408160051b870101925083870160005b828110156200114057603f198886030184526200112d85835162001050565b945092850192908501906001016200110e565b5092979650505050505050565b80356001600160a01b03811681146200116557600080fd5b919050565b600080604083850312156200117e57600080fd5b62001189836200114d565b946020939093013593505050565b600082601f830112620011a957600080fd5b8135602067ffffffffffffffff821115620011c857620011c862000e4f565b8160051b620011d982820162000e65565b9283528481018201928281019087851115620011f457600080fd5b83870192505b848310156200121557823582529183019190830190620011fa565b979650505050505050565b600080604083850312156200123457600080fd5b823567ffffffffffffffff808211156200124d57600080fd5b6200125b8683870162001197565b935060208501359150808211156200127257600080fd5b50620012818582860162001197565b9150509250929050565b6000602082840312156200129e57600080fd5b620010e0826200114d565b6001600160a01b038816815260e060208201819052600090620012cf9083018962001008565b8281036040840152620012e3818962001008565b9150508560608301528460808301528360a083015282151560c083015298975050505050505050565b6000610100808352620013228184018c62001008565b9050828103602084015262001338818b62001008565b905082810360408401526200134e818a62001008565b9050828103606084015262001364818962001008565b9150508560808301528460a08301528360c08301528260e08301529998505050505050505050565b600181811c90821680620013a157607f821691505b602082108103620013c257634e487b7160e01b600052602260045260246000fd5b50919050565b601f8211156200141657600081815260208120601f850160051c81016020861015620013f15750805b601f850160051c820191505b818110156200141257828155600101620013fd565b5050505b505050565b815167ffffffffffffffff81111562001438576200143862000e4f565b62001450816200144984546200138c565b84620013c8565b602080601f8311600181146200148857600084156200146f5750858301515b600019600386901b1c1916600185901b17855562001412565b600085815260208120601f198616915b82811015620014b95788860151825594840194600190910190840162001498565b5085821015620014d85787850151600019600388901b60f8161c191681555b5050505050600190811b01905550565b608081526000620014fd608083018762001008565b828103602084015262001511818762001008565b604084019590955250506060015292915050565b6020808252601c908201527f50726f706572747920696e646578206f7574206f6620626f756e647300000000604082015260600190565b634e487b7160e01b600052603260045260246000fd5b634e487b7160e01b600052601160045260246000fd5b808201808211156200159e576200159e62001572565b92915050565b600060018201620015b957620015b962001572565b506001019056fe60806040523480156200001157600080fd5b506040516200268c3803806200268c833981016040819052620000349162000281565b87876003620000448382620003f0565b506004620000538282620003f0565b505050620000706200006a6200016660201b60201c565b6200016a565b600160068190556007805460ff1916905560408051610120810182528a815260208101899052908101879052606081018690526080810185905260a0810184905260c08101839052600060e0820152610100810191909152600880620000d78b82620003f0565b5060208201516001820190620000ee9082620003f0565b5060408201516002820190620001059082620003f0565b50606082015160038201556080820151600482015560a0820151600582015560c0820151600682015560e08201516007820155610100909101516008909101805460ff191691151591909117905550504260145550620004bc945050505050565b3390565b600580546001600160a01b038381166001600160a01b0319831681179093556040519116919082907f8be0079c531659141344cd1fd0a4f28419497f9722a3daafe3b4186f6b6457e090600090a35050565b634e487b7160e01b600052604160045260246000fd5b600082601f830112620001e457600080fd5b81516001600160401b0380821115620002015762000201620001bc565b604051601f8301601f19908116603f011681019082821181831017156200022c576200022c620001bc565b816040528381526020925086838588010111156200024957600080fd5b600091505b838210156200026d57858201830151818301840152908201906200024e565b600093810190920192909252949350505050565b600080600080600080600080610100898b0312156200029f57600080fd5b88516001600160401b0380821115620002b757600080fd5b620002c58c838d01620001d2565b995060208b0151915080821115620002dc57600080fd5b620002ea8c838d01620001d2565b985060408b01519150808211156200030157600080fd5b6200030f8c838d01620001d2565b975060608b01519150808211156200032657600080fd5b50620003358b828c01620001d2565b9550506080890151935060a0890151925060c0890151915060e089015190509295985092959890939650565b600181811c908216806200037657607f821691505b6020821081036200039757634e487b7160e01b600052602260045260246000fd5b50919050565b601f821115620003eb57600081815260208120601f850160051c81016020861015620003c65750805b601f850160051c820191505b81811015620003e757828155600101620003d2565b5050505b505050565b81516001600160401b038111156200040c576200040c620001bc565b62000424816200041d845462000361565b846200039d565b602080601f8311600181146200045c5760008415620004435750858301515b600019600386901b1c1916600185901b178555620003e7565b600085815260208120601f198616915b828110156200048d578886015182559484019460019091019084016200046c565b5085821015620004ac5787850151600019600388901b60f8161c191681555b5050505050600190811b01905550565b6121c080620004cc6000396000f3fe6080604052600436106101f25760003560e01c806370a082311161010d578063a457c2d7116100a0578063dd62ed3e1161006f578063dd62ed3e14610586578063def18972146105a6578063df48981a146105d3578063e1f1c4a7146105e6578063f2fde38b146105fc57600080fd5b8063a457c2d71461051a578063a9059cbb1461053a578063cbf45c6a1461055a578063db2e21bc1461057157600080fd5b806390838e09116100dc57806390838e09146104ba57806390d322c2146104e757806395d89b41146104ef578063993c36e11461050457600080fd5b806370a0823114610432578063715018a6146104685780638456cb591461047d5780638da5cb5b1461049257600080fd5b8063313ce56711610185578063406cf22911610154578063406cf229146103b95780635c975abb146103ce5780635cfbeb77146103e65780635de5f3be1461041057600080fd5b8063313ce567146103485780633236bee41461036457806339509351146103845780633f4ba83a146103a457600080fd5b806318160ddd116101c157806318160ddd146102d357806319810f3c146102f257806323b872dd1461031257806329eb5f2c1461033257600080fd5b806306fdde03146102165780630707873c14610241578063095ea7b314610281578063131837a2146102b157600080fd5b366102115734601360008282546102099190611c59565b925050819055005b600080fd5b34801561022257600080fd5b5061022b61061c565b6040516102389190611cb2565b60405180910390f35b34801561024d57600080fd5b5061026161025c366004611ce8565b6106ae565b604080519485526020850193909352918301526060820152608001610238565b34801561028d57600080fd5b506102a161029c366004611d03565b61071f565b6040519015158152602001610238565b3480156102bd57600080fd5b506102d16102cc366004611d53565b610739565b005b3480156102df57600080fd5b506002545b604051908152602001610238565b3480156102fe57600080fd5b506102d161030d366004611e28565b6107a9565b34801561031e57600080fd5b506102a161032d366004611e41565b6109b0565b34801561033e57600080fd5b506102e460145481565b34801561035457600080fd5b5060405160128152602001610238565b34801561037057600080fd5b506102e461037f366004611ce8565b6109d4565b34801561039057600080fd5b506102a161039f366004611d03565b610abb565b3480156103b057600080fd5b506102d1610add565b3480156103c557600080fd5b506102d1610aef565b3480156103da57600080fd5b5060075460ff166102a1565b3480156103f257600080fd5b506103fb610c7f565b60405161023899989796959493929190611e7d565b34801561041c57600080fd5b50610425610e57565b6040516102389190611ef0565b34801561043e57600080fd5b506102e461044d366004611ce8565b6001600160a01b031660009081526020819052604090205490565b34801561047457600080fd5b506102d16110b3565b34801561048957600080fd5b506102d16110c5565b34801561049e57600080fd5b506005546040516001600160a01b039091168152602001610238565b3480156104c657600080fd5b506102e46104d5366004611ce8565b60126020526000908152604090205481565b6102d16110d5565b3480156104fb57600080fd5b5061022b6110f6565b34801561051057600080fd5b506102e460135481565b34801561052657600080fd5b506102a1610535366004611d03565b611105565b34801561054657600080fd5b506102a1610555366004611d03565b611180565b34801561056657600080fd5b506102e462278d0081565b34801561057d57600080fd5b506102d161118e565b34801561059257600080fd5b506102e46105a1366004611fa1565b6111cf565b3480156105b257600080fd5b506102e46105c1366004611ce8565b60116020526000908152604090205481565b6102d16105e1366004611e28565b6111fa565b3480156105f257600080fd5b506102e461271081565b34801561060857600080fd5b506102d1610617366004611ce8565b611479565b60606003805461062b90611fd4565b80601f016020809104026020016040519081016040528092919081815260200182805461065790611fd4565b80156106a45780601f10610679576101008083540402835291602001916106a4565b820191906000526020600020905b81548152906001019060200180831161068757829003601f168201915b5050505050905090565b6000806000806106d3856001600160a01b031660009081526020819052604090205490565b6001600160a01b03861660009081526012602052604090205490945092506106fa856109d4565b6001600160a01b03909516600090815260116020526040902054939592949392915050565b60003361072d8185856114ef565b60019150505b92915050565b610741611614565b600861074d858261205c565b50600d839055600e8290556010805460ff19168215151790556040516000907fc7d6594ab03628ef3f6852d4225a8d2b1461544207142d9c0fba9747a789ade59061079b908790879061211c565b60405180910390a250505050565b6107b161166e565b3360009081526020819052604090205481111561080b5760405162461bcd60e51b8152602060048201526013602482015272496e73756666696369656e742073686172657360681b60448201526064015b60405180910390fd5b6000811161085b5760405162461bcd60e51b815260206004820152601e60248201527f4d757374207769746864726177206174206c65617374203120736861726500006044820152606401610802565b600d5460009061086b908361213e565b9050804710156108bd5760405162461bcd60e51b815260206004820152601d60248201527f496e73756666696369656e7420636f6e74726163742062616c616e63650000006044820152606401610802565b6108c5610aef565b6108cf33836116c7565b336000908152602081905260408120546108ea908490611c59565b3360009081526012602052604090205461090590859061213e565b61090f9190612155565b33600090815260126020526040812080549293508392909190610933908490612177565b9091555050604051339083156108fc029084906000818181858888f19350505050158015610965573d6000803e3d6000fd5b50604080518481526020810184905233917ff8e0419d69f3af3590c7931c4532a98ebe7a581ed0a7e304c9ca774b3c99c113910160405180910390a250506109ad6001600655565b50565b6000336109be8582856117f6565b6109c9858585611870565b506001949350505050565b6001600160a01b038116600090815260208190526040812054806000036109fe5750600092915050565b6001600160a01b038316600090815260116020526040812054610a219042612177565b905080600003610a35575060009392505050565b6000610a4060025490565b610a5284670de0b6b3a764000061213e565b610a5c9190612155565b600e546001600160a01b0387166000908152601260205260408120549293509161271091610a899161213e565b610a939190612155565b905060006301e13380610aa6858461213e565b610ab09190612155565b979650505050505050565b60003361072d818585610ace83836111cf565b610ad89190611c59565b6114ef565b610ae5611614565b610aed611a14565b565b610af761166e565b3360009081526020819052604090205480610b465760405162461bcd60e51b815260206004820152600f60248201526e139bc81cda185c995cc81bdddb9959608a1b6044820152606401610802565b6000610b51336109d4565b905060008111610b975760405162461bcd60e51b81526020600482015260116024820152704e6f207969656c6420746f20636c61696d60781b6044820152606401610802565b80471015610be75760405162461bcd60e51b815260206004820152601760248201527f496e73756666696369656e74207969656c6420706f6f6c0000000000000000006044820152606401610802565b336000908152601160205260408120429055600f8054839290610c0b908490611c59565b9091555050604051339082156108fc029083906000818181858888f19350505050158015610c3d573d6000803e3d6000fd5b5060405181815233907f9d315883dbfe38532083c1e42c0d10fbf89ad1cabaa0c269f78b3beb892c101d9060200160405180910390a25050610aed6001600655565b600880548190610c8e90611fd4565b80601f0160208091040260200160405190810160405280929190818152602001828054610cba90611fd4565b8015610d075780601f10610cdc57610100808354040283529160200191610d07565b820191906000526020600020905b815481529060010190602001808311610cea57829003601f168201915b505050505090806001018054610d1c90611fd4565b80601f0160208091040260200160405190810160405280929190818152602001828054610d4890611fd4565b8015610d955780601f10610d6a57610100808354040283529160200191610d95565b820191906000526020600020905b815481529060010190602001808311610d7857829003601f168201915b505050505090806002018054610daa90611fd4565b80601f0160208091040260200160405190810160405280929190818152602001828054610dd690611fd4565b8015610e235780601f10610df857610100808354040283529160200191610e23565b820191906000526020600020905b815481529060010190602001808311610e0657829003601f168201915b5050506003840154600485015460058601546006870154600788015460089098015496979396929550909350919060ff1689565b610ea860405180610120016040528060608152602001606081526020016060815260200160008152602001600081526020016000815260200160008152602001600081526020016000151581525090565b600860405180610120016040529081600082018054610ec690611fd4565b80601f0160208091040260200160405190810160405280929190818152602001828054610ef290611fd4565b8015610f3f5780601f10610f1457610100808354040283529160200191610f3f565b820191906000526020600020905b815481529060010190602001808311610f2257829003601f168201915b50505050508152602001600182018054610f5890611fd4565b80601f0160208091040260200160405190810160405280929190818152602001828054610f8490611fd4565b8015610fd15780601f10610fa657610100808354040283529160200191610fd1565b820191906000526020600020905b815481529060010190602001808311610fb457829003601f168201915b50505050508152602001600282018054610fea90611fd4565b80601f016020809104026020016040519081016040528092919081815260200182805461101690611fd4565b80156110635780601f1061103857610100808354040283529160200191611063565b820191906000526020600020905b81548152906001019060200180831161104657829003601f168201915b505050918352505060038201546020820152600482015460408201526005820154606082015260068201546080820152600782015460a082015260089091015460ff16151560c090910152919050565b6110bb611614565b610aed6000611a66565b6110cd611614565b610aed611ab8565b6110dd611614565b34601360008282546110ef9190611c59565b9091555050565b60606004805461062b90611fd4565b6000338161111382866111cf565b9050838110156111735760405162461bcd60e51b815260206004820152602560248201527f45524332303a2064656372656173656420616c6c6f77616e63652062656c6f77604482015264207a65726f60d81b6064820152608401610802565b6109c982868684036114ef565b60003361072d818585611870565b611196611614565b6005546040516001600160a01b03909116904780156108fc02916000818181858888f193505050501580156109ad573d6000803e3d6000fd5b6001600160a01b03918216600090815260016020908152604080832093909416825291909152205490565b61120261166e565b61120a611af5565b60105460ff166112675760405162461bcd60e51b815260206004820152602260248201527f50726f7065727479206e6f7420616363657074696e6720696e766573746d656e604482015261747360f01b6064820152608401610802565b600081116112b75760405162461bcd60e51b815260206004820152601e60248201527f4d757374207075726368617365206174206c65617374203120736861726500006044820152606401610802565b600c54816112c460025490565b6112ce9190611c59565b111561131c5760405162461bcd60e51b815260206004820152601e60248201527f4578636565647320746f74616c2073686172657320617661696c61626c6500006044820152606401610802565b600d5460009061132c908361213e565b9050803410156113755760405162461bcd60e51b8152602060048201526014602482015273125b9cdd59999a58da595b9d081c185e5b595b9d60621b6044820152606401610802565b61137f3383611b3b565b336000908152601260205260408120805483929061139e908490611c59565b9091555050336000908152601160205260409020429055600e54600c90612710906113c9908461213e565b6113d39190612155565b6113dd9190612155565b601360008282546113ee9190611c59565b90915550503481101561143357336108fc6114098334612177565b6040518115909202916000818181858888f19350505050158015611431573d6000803e3d6000fd5b505b604080518381526020810183905233917f630b54f21d1c5ae41c4633ad96e8c15ce15665365eded6a38476ffa71c8ace6c910160405180910390a2506109ad6001600655565b611481611614565b6001600160a01b0381166114e65760405162461bcd60e51b815260206004820152602660248201527f4f776e61626c653a206e6577206f776e657220697320746865207a65726f206160448201526564647265737360d01b6064820152608401610802565b6109ad81611a66565b6001600160a01b0383166115515760405162461bcd60e51b8152602060048201526024808201527f45524332303a20617070726f76652066726f6d20746865207a65726f206164646044820152637265737360e01b6064820152608401610802565b6001600160a01b0382166115b25760405162461bcd60e51b815260206004820152602260248201527f45524332303a20617070726f766520746f20746865207a65726f206164647265604482015261737360f01b6064820152608401610802565b6001600160a01b0383811660008181526001602090815260408083209487168084529482529182902085905590518481527f8c5be1e5ebec7d5bd14f71427d1e84f3dd0314c0f7b2291e5b200ac8c7c3b92591015b60405180910390a3505050565b6005546001600160a01b03163314610aed5760405162461bcd60e51b815260206004820181905260248201527f4f776e61626c653a2063616c6c6572206973206e6f7420746865206f776e65726044820152606401610802565b6002600654036116c05760405162461bcd60e51b815260206004820152601f60248201527f5265656e7472616e637947756172643a207265656e7472616e742063616c6c006044820152606401610802565b6002600655565b6001600160a01b0382166117275760405162461bcd60e51b815260206004820152602160248201527f45524332303a206275726e2066726f6d20746865207a65726f206164647265736044820152607360f81b6064820152608401610802565b6001600160a01b0382166000908152602081905260409020548181101561179b5760405162461bcd60e51b815260206004820152602260248201527f45524332303a206275726e20616d6f756e7420657863656564732062616c616e604482015261636560f01b6064820152608401610802565b6001600160a01b0383166000818152602081815260408083208686039055600280548790039055518581529192917fddf252ad1be2c89b69c2b068fc378daa952ba7f163c4a11628f55a4df523b3ef9101611607565b505050565b600061180284846111cf565b9050600019811461186a578181101561185d5760405162461bcd60e51b815260206004820152601d60248201527f45524332303a20696e73756666696369656e7420616c6c6f77616e63650000006044820152606401610802565b61186a84848484036114ef565b50505050565b6001600160a01b0383166118d45760405162461bcd60e51b815260206004820152602560248201527f45524332303a207472616e736665722066726f6d20746865207a65726f206164604482015264647265737360d81b6064820152608401610802565b6001600160a01b0382166119365760405162461bcd60e51b815260206004820152602360248201527f45524332303a207472616e7366657220746f20746865207a65726f206164647260448201526265737360e81b6064820152608401610802565b6001600160a01b038316600090815260208190526040902054818110156119ae5760405162461bcd60e51b815260206004820152602660248201527f45524332303a207472616e7366657220616d6f756e7420657863656564732062604482015265616c616e636560d01b6064820152608401610802565b6001600160a01b03848116600081815260208181526040808320878703905593871680835291849020805487019055925185815290927fddf252ad1be2c89b69c2b068fc378daa952ba7f163c4a11628f55a4df523b3ef910160405180910390a361186a565b611a1c611bfa565b6007805460ff191690557f5db9ee0a495bf2e6ff9c91a7834c1ba4fdd244a5e8aa4e537bd38aeae4b073aa335b6040516001600160a01b03909116815260200160405180910390a1565b600580546001600160a01b038381166001600160a01b0319831681179093556040519116919082907f8be0079c531659141344cd1fd0a4f28419497f9722a3daafe3b4186f6b6457e090600090a35050565b611ac0611af5565b6007805460ff191660011790557f62e78cea01bee320cd4e420270b5ea74000d11b0c9f74754ebdbfc544b05a258611a493390565b60075460ff1615610aed5760405162461bcd60e51b815260206004820152601060248201526f14185d5cd8589b194e881c185d5cd95960821b6044820152606401610802565b6001600160a01b038216611b915760405162461bcd60e51b815260206004820152601f60248201527f45524332303a206d696e7420746f20746865207a65726f2061646472657373006044820152606401610802565b8060026000828254611ba39190611c59565b90915550506001600160a01b038216600081815260208181526040808320805486019055518481527fddf252ad1be2c89b69c2b068fc378daa952ba7f163c4a11628f55a4df523b3ef910160405180910390a35050565b60075460ff16610aed5760405162461bcd60e51b815260206004820152601460248201527314185d5cd8589b194e881b9bdd081c185d5cd95960621b6044820152606401610802565b634e487b7160e01b600052601160045260246000fd5b8082018082111561073357610733611c43565b6000815180845260005b81811015611c9257602081850181015186830182015201611c76565b506000602082860101526020601f19601f83011685010191505092915050565b602081526000611cc56020830184611c6c565b9392505050565b80356001600160a01b0381168114611ce357600080fd5b919050565b600060208284031215611cfa57600080fd5b611cc582611ccc565b60008060408385031215611d1657600080fd5b611d1f83611ccc565b946020939093013593505050565b634e487b7160e01b600052604160045260246000fd5b80358015158114611ce357600080fd5b60008060008060808587031215611d6957600080fd5b843567ffffffffffffffff80821115611d8157600080fd5b818701915087601f830112611d9557600080fd5b813581811115611da757611da7611d2d565b604051601f8201601f19908116603f01168101908382118183101715611dcf57611dcf611d2d565b816040528281528a6020848701011115611de857600080fd5b8260208601602083013760006020848301015280985050505050506020850135925060408501359150611e1d60608601611d43565b905092959194509250565b600060208284031215611e3a57600080fd5b5035919050565b600080600060608486031215611e5657600080fd5b611e5f84611ccc565b9250611e6d60208501611ccc565b9150604084013590509250925092565b6000610120808352611e918184018d611c6c565b90508281036020840152611ea5818c611c6c565b90508281036040840152611eb9818b611c6c565b60608401999099525050608081019590955260a085019390935260c084019190915260e08301521515610100909101529392505050565b6020815260008251610120806020850152611f0f610140850183611c6c565b91506020850151601f1980868503016040870152611f2d8483611c6c565b9350604087015191508086850301606087015250611f4b8382611c6c565b92505060608501516080850152608085015160a085015260a085015160c085015260c085015160e085015260e0850151610100818187015280870151915050611f978286018215159052565b5090949350505050565b60008060408385031215611fb457600080fd5b611fbd83611ccc565b9150611fcb60208401611ccc565b90509250929050565b600181811c90821680611fe857607f821691505b60208210810361200857634e487b7160e01b600052602260045260246000fd5b50919050565b601f8211156117f157600081815260208120601f850160051c810160208610156120355750805b601f850160051c820191505b8181101561205457828155600101612041565b505050505050565b815167ffffffffffffffff81111561207657612076611d2d565b61208a816120848454611fd4565b8461200e565b602080601f8311600181146120bf57600084156120a75750858301515b600019600386901b1c1916600185901b178555612054565b600085815260208120601f198616915b828110156120ee578886015182559484019460019091019084016120cf565b508582101561210c5787850151600019600388901b60f8161c191681555b5050505050600190811b01905550565b60408152600061212f6040830185611c6c565b90508260208301529392505050565b808202811582820484141761073357610733611c43565b60008261217257634e487b7160e01b600052601260045260246000fd5b500490565b8181038181111561073357610733611c4356fea2646970667358221220ce9e2b1271c2d3759294982bbe2cb66da42a9009d05675f8b55900e8e585411e64736f6c63430008130033a26469706673582212208201c550b0a3090142d88b1c8c72db9d9d2c0972dec529623f3a8663749b8b0864736f6c63430008130033",
  "linkReferences": {},
  "deployedLinkReferences": {}
}