{
  "_format": "hh-sol-artifact-1",
  "contractName": "BillsManager",
  "sourceName": "shared/contracts/BillsManager.sol",
  "abi": [
    {
      "inputs": [
        {
          "internalType": "address",
          "name": "_usdcToken",
          "type": "address"
        }
      ],
      "stateMutability": "nonpayable",
      "type": "constructor"
    },
    {
      "anonymous": false,
      "inputs": [
        {
          "indexed": true,
          "internalType": "uint256",
          "name": "billId",
          "type": "uint256"
        },
        {
          "indexed": true,
          "internalType": "address",
          "name": "user",
          "type": "address"
        },
        {
          "indexed": false,
          "internalType": "string",
          "name": "name",
          "type": "string"
        },
        {
          "indexed": false,
          "internalType": "enum BillsManager.BillCategory",
          "name": "category",
          "type": "uint8"
        },
        {
          "indexed": false,
          "internalType": "uint256",
          "name": "amount",
          "type": "uint256"
        },
        {
          "indexed": false,
          "internalType": "uint256",
          "name": "dueDate",
          "type": "uint256"
        }
      ],
      "name": "BillCreated",
      "type": "event"
    },
    {
      "anonymous": false,
      "inputs": [
        {
          "indexed": true,
          "internalType": "uint256",
          "name": "billId",
          "type": "uint256"
        },
        {
          "indexed": true,
          "internalType": "address",
          "name": "user",
          "type": "address"
        }
      ],
      "name": "BillDeleted",
      "type": "event"
    },
    {
      "anonymous": false,
      "inputs": [
        {
          "indexed": true,
          "internalType": "uint256",
          "name": "billId",
          "type": "uint256"
        },
        {
          "indexed": true,
          "internalType": "address",
          "name": "user",
          "type": "address"
        },
        {
          "indexed": false,
          "internalType": "uint256",
          "name": "amount",
          "type": "uint256"
        },
        {
          "indexed": false,
          "internalType": "uint256",
          "name": "paidAt",
          "type": "uint256"
        }
      ],
      "name": "BillPaid",
      "type": "event"
    },
    {
      "anonymous": false,
      "inputs": [
        {
          "indexed": true,
          "internalType": "uint256",
          "name": "billId",
          "type": "uint256"
        },
        {
          "indexed": true,
          "internalType": "address",
          "name": "user",
          "type": "address"
        },
        {
          "indexed": false,
          "internalType": "enum BillsManager.BillStatus",
          "name": "status",
          "type": "uint8"
        }
      ],
      "name": "BillUpdated",
      "type": "event"
    },
    {
      "anonymous": false,
      "inputs": [
        {
          "indexed": true,
          "internalType": "address",
          "name": "previousOwner",
          "type": "address"
        },
        {
          "indexed": true,
          "internalType": "address",
          "name": "newOwner",
          "type": "address"
        }
      ],
      "name": "OwnershipTransferred",
      "type": "event"
    },
    {
      "inputs": [
        {
          "internalType": "uint256",
          "name": "",
          "type": "uint256"
        },
        {
          "internalType": "uint256",
          "name": "",
          "type": "uint256"
        }
      ],
      "name": "billPayments",
      "outputs": [
        {
          "internalType": "uint256",
          "name": "billId",
          "type": "uint256"
        },
        {
          "internalType": "uint256",
          "name": "amount",
          "type": "uint256"
        },
        {
          "internalType": "uint256",
          "name": "paidAt",
          "type": "uint256"
        },
        {
          "internalType": "bytes32",
          "name": "transactionHash",
          "type": "bytes32"
        }
      ],
      "stateMutability": "view",
      "type": "function"
    },
    {
      "inputs": [
        {
          "internalType": "uint256",
          "name": "",
          "type": "uint256"
        }
      ],
      "name": "bills",
      "outputs": [
        {
          "internalType": "uint256",
          "name": "id",
          "type": "uint256"
        },
        {
          "internalType": "string",
          "name": "name",
          "type": "string"
        },
        {
          "internalType": "string",
          "name": "description",
          "type": "string"
        },
        {
          "internalType": "enum BillsManager.BillCategory",
          "name": "category",
          "type": "uint8"
        },
        {
          "internalType": "uint256",
          "name": "amount",
          "type": "uint256"
        },
        {
          "internalType": "uint256",
          "name": "dueDate",
          "type": "uint256"
        },
        {
          "internalType": "uint256",
          "name": "frequency",
          "type": "uint256"
        },
        {
          "internalType": "address",
          "name": "payee",
          "type": "address"
        },
        {
          "internalType": "enum BillsManager.BillStatus",
          "name": "status",
          "type": "uint8"
        },
        {
          "internalType": "uint256",
          "name": "totalPaid",
          "type": "uint256"
        },
        {
          "internalType": "uint256",
          "name": "paymentCount",
          "type": "uint256"
        },
        {
          "internalType": "uint256",
          "name": "createdAt",
          "type": "uint256"
        },
        {
          "internalType": "uint256",
          "name": "lastPaidAt",
          "type": "uint256"
        }
      ],
      "stateMutability": "view",
      "type": "function"
    },
    {
      "inputs": [
        {
          "internalType": "string",
          "name": "_name",
          "type": "string"
        },
        {
          "internalType": "string",
          "name": "_description",
          "type": "string"
        },
        {
          "internalType": "enum BillsManager.BillCategory",
          "name": "_category",
          "type": "uint8"
        },
        {
          "internalType": "uint256",
          "name": "_amount",
          "type": "uint256"
        },
        {
          "internalType": "uint256",
          "name": "_dueDate",
          "type": "uint256"
        },
        {
          "internalType": "uint256",
          "name": "_frequency",
          "type": "uint256"
        },
        {
          "internalType": "address",
          "name": "_payee",
          "type": "address"
        }
      ],
      "name": "createBill",
      "outputs": [
        {
          "internalType": "uint256",
          "name": "",
          "type": "uint256"
        }
      ],
      "stateMutability": "nonpayable",
      "type": "function"
    },
    {
      "inputs": [
        {
          "internalType": "uint256",
          "name": "_billId",
          "type": "uint256"
        }
      ],
      "name": "deleteBill",
      "outputs": [],
      "stateMutability": "nonpayable",
      "type": "function"
    },
    {
      "inputs": [
        {
          "internalType": "uint256",
          "name": "_billId",
          "type": "uint256"
        }
      ],
      "name": "getBill",
      "outputs": [
        {
          "components": [
            {
              "internalType": "uint256",
              "name": "id",
              "type": "uint256"
            },
            {
              "internalType": "string",
              "name": "name",
              "type": "string"
            },
            {
              "internalType": "string",
              "name": "description",
              "type": "string"
            },
            {
              "internalType": "enum BillsManager.BillCategory",
              "name": "category",
              "type": "uint8"
            },
            {
              "internalType": "uint256",
              "name": "amount",
              "type": "uint256"
            },
            {
              "internalType": "uint256",
              "name": "dueDate",
              "type": "uint256"
            },
            {
              "internalType": "uint256",
              "name": "frequency",
              "type": "uint256"
            },
            {
              "internalType": "address",
              "name": "payee",
              "type": "address"
            },
            {
              "internalType": "enum BillsManager.BillStatus",
              "name": "status",
              "type": "uint8"
            },
            {
              "internalType": "uint256",
              "name": "totalPaid",
              "type": "uint256"
            },
            {
              "internalType": "uint256",
              "name": "paymentCount",
              "type": "uint256"
            },
            {
              "internalType": "uint256",
              "name": "createdAt",
              "type": "uint256"
            },
            {
              "internalType": "uint256",
              "name": "lastPaidAt",
              "type": "uint256"
            }
          ],
          "internalType": "struct BillsManager.Bill",
          "name": "",
          "type": "tuple"
        }
      ],
      "stateMutability": "view",
      "type": "function"
    },
    {
      "inputs": [
        {
          "internalType": "uint256",
          "name": "_billId",
          "type": "uint256"
        }
      ],
      "name": "getBillPayments",
      "outputs": [
        {
          "components": [
            {
              "internalType": "uint256",
              "name": "billId",
              "type": "uint256"
            },
            {
              "internalType": "uint256",
              "name": "amount",
              "type": "uint256"
            },
            {
              "internalType": "uint256",
              "name": "paidAt",
              "type": "uint256"
            },
            {
              "internalType": "bytes32",
              "name": "transactionHash",
              "type": "bytes32"
            }
          ],
          "internalType": "struct BillsManager.BillPayment[]",
          "name": "",
          "type": "tuple[]"
        }
      ],
      "stateMutability": "view",
      "type": "function"
    },
    {
      "inputs": [
        {
          "internalType": "address",
          "name": "_user",
          "type": "address"
        }
      ],
      "name": "getOverdueBills",
      "outputs": [
        {
          "internalType": "uint256[]",
          "name": "",
          "type": "uint256[]"
        }
      ],
      "stateMutability": "view",
      "type": "function"
    },
    {
      "inputs": [
        {
          "internalType": "address",
          "name": "_user",
          "type": "address"
        }
      ],
      "name": "getUpcomingBills",
      "outputs": [
        {
          "internalType": "uint256[]",
          "name": "",
          "type": "uint256[]"
        }
      ],
      "stateMutability": "view",
      "type": "function"
    },
    {
      "inputs": [
        {
          "internalType": "address",
          "name": "_user",
          "type": "address"
        }
      ],
      "name": "getUserBills",
      "outputs": [
        {
          "internalType": "uint256[]",
          "name": "",
          "type": "uint256[]"
        }
      ],
      "stateMutability": "view",
      "type": "function"
    },
    {
      "inputs": [
        {
          "internalType": "address",
          "name": "_user",
          "type": "address"
        }
      ],
      "name": "getUserSpendingSummary",
      "outputs": [
        {
          "internalType": "uint256",
          "name": "totalSpent",
          "type": "uint256"
        },
        {
          "internalType": "uint256",
          "name": "activeBillsCount",
          "type": "uint256"
        },
        {
          "internalType": "uint256",
          "name": "overdueBillsCount",
          "type": "uint256"
        },
        {
          "internalType": "uint256",
          "name": "monthlyBudget",
          "type": "uint256"
        }
      ],
      "stateMutability": "view",
      "type": "function"
    },
    {
      "inputs": [
        {
          "internalType": "address",
          "name": "_user",
          "type": "address"
        },
        {
          "internalType": "uint256",
          "name": "_billId",
          "type": "uint256"
        }
      ],
      "name": "isUserBill",
      "outputs": [
        {
          "internalType": "bool",
          "name": "",
          "type": "bool"
        }
      ],
      "stateMutability": "view",
      "type": "function"
    },
    {
      "inputs": [],
      "name": "owner",
      "outputs": [
        {
          "internalType": "address",
          "name": "",
          "type": "address"
        }
      ],
      "stateMutability": "view",
      "type": "function"
    },
    {
      "inputs": [
        {
          "internalType": "uint256",
          "name": "_billId",
          "type": "uint256"
        }
      ],
      "name": "payBill",
      "outputs": [],
      "stateMutability": "nonpayable",
      "type": "function"
    },
    {
      "inputs": [],
      "name": "renounceOwnership",
      "outputs": [],
      "stateMutability": "nonpayable",
      "type": "function"
    },
    {
      "inputs": [
        {
          "internalType": "address",
          "name": "newOwner",
          "type": "address"
        }
      ],
      "name": "transferOwnership",
      "outputs": [],
      "stateMutability": "nonpayable",
      "type": "function"
    },
    {
      "inputs": [
        {
          "internalType": "uint256",
          "name": "_billId",
          "type": "uint256"
        },
        {
          "internalType": "enum BillsManager.BillStatus",
          "name": "_status",
          "type": "uint8"
        }
      ],
      "name": "updateBillStatus",
      "outputs": [],
      "stateMutability": "nonpayable",
      "type": "function"
    },
    {
      "inputs": [
        {
          "internalType": "address",
          "name": "_newUSDCToken",
          "type": "address"
        }
      ],
      "name": "updateUSDCToken",
      "outputs": [],
      "stateMutability": "nonpayable",
      "type": "function"
    },
    {
      "inputs": [],
      "name": "usdcToken",
      "outputs": [
        {
          "internalType": "contract IERC20",
          "name": "",
          "type": "address"
        }
      ],
      "stateMutability": "view",
      "type": "function"
    },
    {
      "inputs": [
        {
          "internalType": "address",
          "name": "",
          "type": "address"
        },
        {
          "internalType": "uint256",
          "name": "",
          "type": "uint256"
        }
      ],
      "name": "userBills",
      "outputs": [
        {
          "internalType": "uint256",
          "name": "",
          "type": "uint256"
        }
      ],
      "stateMutability": "view",
      "type": "function"
    },
    {
      "inputs": [
        {
          "internalType": "address",
          "name": "",
          "type": "address"
        }
      ],
      "name": "userTotalSpent",
      "outputs": [
        {
          "internalType": "uint256",
          "name": "",
          "type": "uint256"
        }
      ],
      "stateMutability": "view",
      "type": "function"
    }
  ],
  "bytecode": "0x60806040523480156200001157600080fd5b5060405162002c2c38038062002c2c8339810160408190526200003491620000be565b6200003f336200006e565b6001808055600280546001600160a01b0319166001600160a01b039390931692909217909155600355620000f0565b600080546001600160a01b038381166001600160a01b0319831681178455604051919092169283917f8be0079c531659141344cd1fd0a4f28419497f9722a3daafe3b4186f6b6457e09190a35050565b600060208284031215620000d157600080fd5b81516001600160a01b0381168114620000e957600080fd5b9392505050565b612b2c80620001006000396000f3fe608060405234801561001057600080fd5b506004361061012c5760003560e01c8063b1cd06e6116100ad578063e203c2e411610071578063e203c2e4146102e2578063e65ef7f5146102f5578063f097519014610308578063f2fde38b1461031b578063f8289b851461032e57600080fd5b8063b1cd06e614610266578063c421bb2e14610286578063cc7143cd146102a9578063ce3332fc146102bc578063d7196803146102cf57600080fd5b8063682ab743116100f4578063682ab743146101f7578063715018a614610218578063805351a4146102225780638da5cb5b14610235578063a0c922191461024657600080fd5b806301a333531461013157806311eac8551461015a57806328bdcde8146101855780635a842611146101b15780635b88e83c146101e4575b600080fd5b61014461013f36600461239d565b61034e565b60405161015191906123bf565b60405180910390f35b60025461016d906001600160a01b031681565b6040516001600160a01b039091168152602001610151565b610198610193366004612403565b610760565b6040516101519d9c9b9a9998979695949392919061249c565b6101c46101bf366004612539565b6108e5565b604080519485526020850193909352918301526060820152608001610151565b6101c46101f236600461239d565b61092b565b61020a61020536600461255b565b610c94565b604051908152602001610151565b610220610cc5565b005b61022061023036600461239d565b610cd9565b6000546001600160a01b031661016d565b610259610254366004612403565b610d5e565b6040516101519190612585565b610279610274366004612403565b610df8565b60405161015191906125e9565b61029961029436600461255b565b611014565b6040519015158152602001610151565b6101446102b736600461239d565b6110ce565b6102206102ca366004612403565b611503565b6102206102dd3660046126ca565b611722565b61020a6102f03660046127a1565b611825565b61014461030336600461239d565b611bc8565b610220610316366004612403565b611c34565b61022061032936600461239d565b6120d8565b61020a61033c36600461239d565b60076020526000908152604090205481565b6001600160a01b03811660009081526004602090815260408083208054825181850281018501909352808352606094938301828280156103ad57602002820191906000526020600020905b815481526020019060010190808311610399575b505050505090506000815167ffffffffffffffff8111156103d0576103d06126fe565b6040519080825280602002602001820160405280156103f9578160200160208202803683370190505b5090506000805b83518110156106ba5760006005600086848151811061042157610421612849565b60200260200101518152602001908152602001600020604051806101a00160405290816000820154815260200160018201805461045d9061285f565b80601f01602080910402602001604051908101604052809291908181526020018280546104899061285f565b80156104d65780601f106104ab576101008083540402835291602001916104d6565b820191906000526020600020905b8154815290600101906020018083116104b957829003601f168201915b505050505081526020016002820180546104ef9061285f565b80601f016020809104026020016040519081016040528092919081815260200182805461051b9061285f565b80156105685780601f1061053d57610100808354040283529160200191610568565b820191906000526020600020905b81548152906001019060200180831161054b57829003601f168201915b5050509183525050600382015460209091019060ff16600581111561058f5761058f612462565b60058111156105a0576105a0612462565b815260048201546020820152600582015460408201526006820154606082015260078201546001600160a01b038116608083015260a090910190600160a01b900460ff1660028111156105f5576105f5612462565b600281111561060657610606612462565b81526008820154602082015260098201546040820152600a8201546060820152600b9091015460809091015290506000816101000151600281111561064d5761064d612462565b14801561065d5750428160a00151105b156106a75784828151811061067457610674612849565b602002602001015184848151811061068e5761068e612849565b6020908102919091010152826106a3816128af565b9350505b50806106b2816128af565b915050610400565b5060008167ffffffffffffffff8111156106d6576106d66126fe565b6040519080825280602002602001820160405280156106ff578160200160208202803683370190505b50905060005b828110156107565783818151811061071f5761071f612849565b602002602001015182828151811061073957610739612849565b60209081029190910101528061074e816128af565b915050610705565b5095945050505050565b600560205260009081526040902080546001820180549192916107829061285f565b80601f01602080910402602001604051908101604052809291908181526020018280546107ae9061285f565b80156107fb5780601f106107d0576101008083540402835291602001916107fb565b820191906000526020600020905b8154815290600101906020018083116107de57829003601f168201915b5050505050908060020180546108109061285f565b80601f016020809104026020016040519081016040528092919081815260200182805461083c9061285f565b80156108895780601f1061085e57610100808354040283529160200191610889565b820191906000526020600020905b81548152906001019060200180831161086c57829003601f168201915b50505060038401546004850154600586015460068701546007880154600889015460098a0154600a8b0154600b909b0154999a60ff9788169a96995094975092956001600160a01b03831695600160a01b90930416939092918d565b6006602052816000526040600020818154811061090157600080fd5b60009182526020909120600490910201805460018201546002830154600390930154919450925084565b6001600160a01b038116600090815260076020908152604080832054600483528184208054835181860281018601909452808452919493849384938493919283018282801561099957602002820191906000526020600020905b815481526020019060010190808311610985575b505050505090506000806000805b8451811015610c85576000600560008784815181106109c8576109c8612849565b60200260200101518152602001908152602001600020604051806101a001604052908160008201548152602001600182018054610a049061285f565b80601f0160208091040260200160405190810160405280929190818152602001828054610a309061285f565b8015610a7d5780601f10610a5257610100808354040283529160200191610a7d565b820191906000526020600020905b815481529060010190602001808311610a6057829003601f168201915b50505050508152602001600282018054610a969061285f565b80601f0160208091040260200160405190810160405280929190818152602001828054610ac29061285f565b8015610b0f5780601f10610ae457610100808354040283529160200191610b0f565b820191906000526020600020905b815481529060010190602001808311610af257829003601f168201915b5050509183525050600382015460209091019060ff166005811115610b3657610b36612462565b6005811115610b4757610b47612462565b815260048201546020820152600582015460408201526006820154606082015260078201546001600160a01b038116608083015260a090910190600160a01b900460ff166002811115610b9c57610b9c612462565b6002811115610bad57610bad612462565b81526008820154602082015260098201546040820152600a8201546060820152600b90910154608090910152905060008161010001516002811115610bf457610bf4612462565b03610c725784610c03816128af565b95505062278d008160c0015111610c2a576080810151610c2390846128c8565b9250610c58565b60c08101516080820151610c419062278d006128db565b610c4b91906128f2565b610c5590846128c8565b92505b428160a001511015610c725783610c6e816128af565b9450505b5080610c7d816128af565b9150506109a7565b50969891975095945092505050565b60046020528160005260406000208181548110610cb057600080fd5b90600052602060002001600091509150505481565b610ccd61214e565b610cd760006121a8565b565b610ce161214e565b6001600160a01b038116610d3c5760405162461bcd60e51b815260206004820152601a60248201527f496e76616c6964205553444320746f6b656e206164647265737300000000000060448201526064015b60405180910390fd5b600280546001600160a01b0319166001600160a01b0392909216919091179055565b606060066000838152602001908152602001600020805480602002602001604051908101604052809291908181526020016000905b82821015610ded578382906000526020600020906004020160405180608001604052908160008201548152602001600182015481526020016002820154815260200160038201548152505081526020019060010190610d93565b505050509050919050565b610e00612251565b60056000838152602001908152602001600020604051806101a001604052908160008201548152602001600182018054610e399061285f565b80601f0160208091040260200160405190810160405280929190818152602001828054610e659061285f565b8015610eb25780601f10610e8757610100808354040283529160200191610eb2565b820191906000526020600020905b815481529060010190602001808311610e9557829003601f168201915b50505050508152602001600282018054610ecb9061285f565b80601f0160208091040260200160405190810160405280929190818152602001828054610ef79061285f565b8015610f445780601f10610f1957610100808354040283529160200191610f44565b820191906000526020600020905b815481529060010190602001808311610f2757829003601f168201915b5050509183525050600382015460209091019060ff166005811115610f6b57610f6b612462565b6005811115610f7c57610f7c612462565b815260048201546020820152600582015460408201526006820154606082015260078201546001600160a01b038116608083015260a090910190600160a01b900460ff166002811115610fd157610fd1612462565b6002811115610fe257610fe2612462565b81526008820154602082015260098201546040820152600a8201546060820152600b9091015460809091015292915050565b6001600160a01b03821660009081526004602090815260408083208054825181850281018501909352808352849383018282801561107157602002820191906000526020600020905b81548152602001906001019080831161105d575b5050505050905060005b81518110156110c1578382828151811061109757611097612849565b6020026020010151036110af576001925050506110c8565b806110b9816128af565b91505061107b565b5060009150505b92915050565b6001600160a01b038116600090815260046020908152604080832080548251818502810185019093528083526060949383018282801561112d57602002820191906000526020600020905b815481526020019060010190808311611119575b505050505090506000815167ffffffffffffffff811115611150576111506126fe565b604051908082528060200260200182016040528015611179578160200160208202803683370190505b50905060008061118c4262093a806128c8565b905060005b845181101561145c576000600560008784815181106111b2576111b2612849565b60200260200101518152602001908152602001600020604051806101a0016040529081600082015481526020016001820180546111ee9061285f565b80601f016020809104026020016040519081016040528092919081815260200182805461121a9061285f565b80156112675780601f1061123c57610100808354040283529160200191611267565b820191906000526020600020905b81548152906001019060200180831161124a57829003601f168201915b505050505081526020016002820180546112809061285f565b80601f01602080910402602001604051908101604052809291908181526020018280546112ac9061285f565b80156112f95780601f106112ce576101008083540402835291602001916112f9565b820191906000526020600020905b8154815290600101906020018083116112dc57829003601f168201915b5050509183525050600382015460209091019060ff16600581111561132057611320612462565b600581111561133157611331612462565b815260048201546020820152600582015460408201526006820154606082015260078201546001600160a01b038116608083015260a090910190600160a01b900460ff16600281111561138657611386612462565b600281111561139757611397612462565b81526008820154602082015260098201546040820152600a8201546060820152600b909101546080909101529050600081610100015160028111156113de576113de612462565b1480156113ef5750428160a0015110155b80156113ff5750828160a0015111155b156114495785828151811061141657611416612849565b602002602001015185858151811061143057611430612849565b602090810291909101015283611445816128af565b9450505b5080611454816128af565b915050611191565b5060008267ffffffffffffffff811115611478576114786126fe565b6040519080825280602002602001820160405280156114a1578160200160208202803683370190505b50905060005b838110156114f8578481815181106114c1576114c1612849565b60200260200101518282815181106114db576114db612849565b6020908102919091010152806114f0816128af565b9150506114a7565b509695505050505050565b61150d3382611014565b6115645760405162461bcd60e51b815260206004820152602260248201527f4e6f7420617574686f72697a656420746f2064656c65746520746869732062696044820152611b1b60f21b6064820152608401610d33565b600081815260056020526040812080549091036115935760405162461bcd60e51b8152600401610d3390612914565b336000908152600460205260408120905b815481101561165857838282815481106115c0576115c0612849565b90600052602060002001540361164657815482906115e090600190612941565b815481106115f0576115f0612849565b906000526020600020015482828154811061160d5761160d612849565b90600052602060002001819055508180548061162b5761162b612954565b60019003818190600052602060002001600090559055611658565b80611650816128af565b9150506115a4565b5060008381526005602052604081208181559061167860018301826122e4565b6116866002830160006122e4565b5060038101805460ff191690556000600482018190556005820181905560068083018290556007830180546001600160a81b03191690556008830182905560098301829055600a8301829055600b909201819055848152602091909152604081206116f09161231e565b604051339084907fa2ede80303ee144e74536e2c387fb6a44b39aa2c3fcea28bd4f609bdf0e2b15e90600090a3505050565b61172c3383611014565b6117835760405162461bcd60e51b815260206004820152602260248201527f4e6f7420617574686f72697a656420746f2075706461746520746869732062696044820152611b1b60f21b6064820152608401610d33565b600082815260056020526040812080549091036117b25760405162461bcd60e51b8152600401610d3390612914565b60078101805483919060ff60a01b1916600160a01b8360028111156117d9576117d9612462565b0217905550336001600160a01b0316837f31bea8e94047554dc050b2dd26f68c28cff2a4ad7da4926f82bbfb96e064dad384604051611818919061296a565b60405180910390a3505050565b6000808851116118775760405162461bcd60e51b815260206004820152601960248201527f42696c6c206e616d652063616e6e6f7420626520656d707479000000000000006044820152606401610d33565b600085116118d25760405162461bcd60e51b815260206004820152602260248201527f42696c6c20616d6f756e74206d7573742062652067726561746572207468616e604482015261020360f41b6064820152608401610d33565b4284116119215760405162461bcd60e51b815260206004820152601e60248201527f4475652064617465206d75737420626520696e207468652066757475726500006044820152606401610d33565b600083116119715760405162461bcd60e51b815260206004820181905260248201527f4672657175656e6379206d7573742062652067726561746572207468616e20306044820152606401610d33565b6001600160a01b0382166119c75760405162461bcd60e51b815260206004820152601c60248201527f50617965652063616e6e6f74206265207a65726f2061646472657373000000006044820152606401610d33565b60038054600091826119d8836128af565b919050559050604051806101a001604052808281526020018a8152602001898152602001886005811115611a0e57611a0e612462565b81526020810188905260408101879052606081018690526001600160a01b038516608082015260a0016000815260006020808301829052604080840183905242606085015260809093018290528482526005815291902082518155908201516001820190611a7c90826129c7565b5060408201516002820190611a9190826129c7565b50606082015160038201805460ff19166001836005811115611ab557611ab5612462565b02179055506080820151600482015560a0820151600582015560c0820151600682015560e08201516007820180546001600160a01b039092166001600160a01b0319831681178255610100850151926001600160a81b03191617600160a01b836002811115611b2657611b26612462565b021790555061012082015160088201556101408201516009820155610160820151600a82015561018090910151600b90910155336000818152600460209081526040808320805460018101825590845291909220018390555182907f797df664c1387dd228da3e81f39d08966a0554c3811703fd28cc71d277f15d4f90611bb4908d908c908c908c90612a87565b60405180910390a398975050505050505050565b6001600160a01b038116600090815260046020908152604091829020805483518184028101840190945280845260609392830182828015611c2857602002820191906000526020600020905b815481526020019060010190808311611c14575b50505050509050919050565b611c3c6121f8565b60008181526005602052604081208054909103611c6b5760405162461bcd60e51b8152600401610d3390612914565b60006007820154600160a01b900460ff166002811115611c8d57611c8d612462565b14611ccf5760405162461bcd60e51b815260206004820152601260248201527142696c6c206973206e6f742061637469766560701b6044820152606401610d33565b611cd93383611014565b611d255760405162461bcd60e51b815260206004820152601f60248201527f4e6f7420617574686f72697a656420746f2070617920746869732062696c6c006044820152606401610d33565b6004818101546002546040516370a0823160e01b8152339381019390935290916001600160a01b03909116906370a0823190602401602060405180830381865afa158015611d77573d6000803e3d6000fd5b505050506040513d601f19601f82011682018060405250810190611d9b9190612abb565b1015611de95760405162461bcd60e51b815260206004820152601960248201527f496e73756666696369656e7420555344432062616c616e6365000000000000006044820152606401610d33565b600481810154600254604051636eb1769f60e11b8152339381019390935230602484015290916001600160a01b039091169063dd62ed3e90604401602060405180830381865afa158015611e41573d6000803e3d6000fd5b505050506040513d601f19601f82011682018060405250810190611e659190612abb565b1015611eb35760405162461bcd60e51b815260206004820152601b60248201527f496e73756666696369656e74205553444320616c6c6f77616e636500000000006044820152606401610d33565b60025460078201546004808401546040516323b872dd60e01b815233928101929092526001600160a01b03928316602483015260448201529116906323b872dd906064016020604051808303816000875af1158015611f16573d6000803e3d6000fd5b505050506040513d601f19601f82011682018060405250810190611f3a9190612ad4565b611f7d5760405162461bcd60e51b81526020600482015260146024820152731554d110c81d1c985b9cd9995c8819985a5b195960621b6044820152606401610d33565b8060040154816008016000828254611f9591906128c8565b925050819055506001816009016000828254611fb191906128c8565b909155505042600b8201556006810154600582018054600090611fd59084906128c8565b909155505060048101543360009081526007602052604081208054909190611ffe9084906128c8565b92505081905550600660008381526020019081526020016000206040518060800160405280848152602001836004015481526020014281526020016001436120469190612941565b4090528154600180820184556000938452602093849020835160049384029091019081558385015191810191909155604080840151600283015560609093015160039091015583015481519081524292810192909252339184917f53646f88205e1dd1de6fdaa8898d840fbe17129cb98729533d3c83a3a0e6045a910160405180910390a3506120d560018055565b50565b6120e061214e565b6001600160a01b0381166121455760405162461bcd60e51b815260206004820152602660248201527f4f776e61626c653a206e6577206f776e657220697320746865207a65726f206160448201526564647265737360d01b6064820152608401610d33565b6120d5816121a8565b6000546001600160a01b03163314610cd75760405162461bcd60e51b815260206004820181905260248201527f4f776e61626c653a2063616c6c6572206973206e6f7420746865206f776e65726044820152606401610d33565b600080546001600160a01b038381166001600160a01b0319831681178455604051919092169283917f8be0079c531659141344cd1fd0a4f28419497f9722a3daafe3b4186f6b6457e09190a35050565b60026001540361224a5760405162461bcd60e51b815260206004820152601f60248201527f5265656e7472616e637947756172643a207265656e7472616e742063616c6c006044820152606401610d33565b6002600155565b604051806101a001604052806000815260200160608152602001606081526020016000600581111561228557612285612462565b815260200160008152602001600081526020016000815260200160006001600160a01b03168152602001600060028111156122c2576122c2612462565b8152602001600081526020016000815260200160008152602001600081525090565b5080546122f09061285f565b6000825580601f10612300575050565b601f0160209004906000526020600020908101906120d5919061233f565b50805460008255600402906000526020600020908101906120d59190612358565b5b808211156123545760008155600101612340565b5090565b5b8082111561235457600080825560018201819055600282018190556003820155600401612359565b80356001600160a01b038116811461239857600080fd5b919050565b6000602082840312156123af57600080fd5b6123b882612381565b9392505050565b6020808252825182820181905260009190848201906040850190845b818110156123f7578351835292840192918401916001016123db565b50909695505050505050565b60006020828403121561241557600080fd5b5035919050565b6000815180845260005b8181101561244257602081850181015186830182015201612426565b506000602082860101526020601f19601f83011685010191505092915050565b634e487b7160e01b600052602160045260246000fd5b6006811061248857612488612462565b9052565b6003811061248857612488612462565b8d81526101a0602082015260006124b76101a083018f61241c565b82810360408401526124c9818f61241c565b9150506124d9606083018d612478565b608082018b905260a082018a905260c082018990526001600160a01b03881660e083015261250b61010083018861248c565b856101208301528461014083015283610160830152826101808301529e9d5050505050505050505050505050565b6000806040838503121561254c57600080fd5b50508035926020909101359150565b6000806040838503121561256e57600080fd5b61257783612381565b946020939093013593505050565b602080825282518282018190526000919060409081850190868401855b828110156125dc578151805185528681015187860152858101518686015260609081015190850152608090930192908501906001016125a2565b5091979650505050505050565b6020815281516020820152600060208301516101a08060408501526126126101c085018361241c565b91506040850151601f1985840301606086015261262f838261241c565b92505060608501516126446080860182612478565b50608085015160a085015260a085015160c085015260c085015160e085015260e085015161010061267f818701836001600160a01b03169052565b86015190506101206126938682018361248c565b8601516101408681019190915286015161016080870191909152860151610180808701919091529095015193019290925250919050565b600080604083850312156126dd57600080fd5b823591506020830135600381106126f357600080fd5b809150509250929050565b634e487b7160e01b600052604160045260246000fd5b600082601f83011261272557600080fd5b813567ffffffffffffffff80821115612740576127406126fe565b604051601f8301601f19908116603f01168101908282118183101715612768576127686126fe565b8160405283815286602085880101111561278157600080fd5b836020870160208301376000602085830101528094505050505092915050565b600080600080600080600060e0888a0312156127bc57600080fd5b873567ffffffffffffffff808211156127d457600080fd5b6127e08b838c01612714565b985060208a01359150808211156127f657600080fd5b506128038a828b01612714565b96505060408801356006811061281857600080fd5b9450606088013593506080880135925060a0880135915061283b60c08901612381565b905092959891949750929550565b634e487b7160e01b600052603260045260246000fd5b600181811c9082168061287357607f821691505b60208210810361289357634e487b7160e01b600052602260045260246000fd5b50919050565b634e487b7160e01b600052601160045260246000fd5b6000600182016128c1576128c1612899565b5060010190565b808201808211156110c8576110c8612899565b80820281158282048414176110c8576110c8612899565b60008261290f57634e487b7160e01b600052601260045260246000fd5b500490565b602080825260139082015272109a5b1b08191bd95cc81b9bdd08195e1a5cdd606a1b604082015260600190565b818103818111156110c8576110c8612899565b634e487b7160e01b600052603160045260246000fd5b602081016110c8828461248c565b601f8211156129c257600081815260208120601f850160051c8101602086101561299f5750805b601f850160051c820191505b818110156129be578281556001016129ab565b5050505b505050565b815167ffffffffffffffff8111156129e1576129e16126fe565b6129f5816129ef845461285f565b84612978565b602080601f831160018114612a2a5760008415612a125750858301515b600019600386901b1c1916600185901b1785556129be565b600085815260208120601f198616915b82811015612a5957888601518255948401946001909101908401612a3a565b5085821015612a775787850151600019600388901b60f8161c191681555b5050505050600190811b01905550565b608081526000612a9a608083018761241c565b9050612aa96020830186612478565b60408201939093526060015292915050565b600060208284031215612acd57600080fd5b5051919050565b600060208284031215612ae657600080fd5b815180151581146123b857600080fdfea2646970667358221220852ce4adeb3c4ec282e969d9545fb79c4cdf95094be408ff9736b4bfec6c76b564736f6c63430008130033",
  "linkReferences": {},
  "deployedLinkReferences": {}
}