{
  "_format": "hh-sol-artifact-1",
  "contractName": "RWAProperty",
  "sourceName": "shared/contracts/RWAProperty.sol",
  "abi": [
    {
      "inputs": [
        {
          "internalType": "address",
          "name": "_complianceOracle",
          "type": "address"
        }
      ],
      "stateMutability": "nonpayable",
      "type": "constructor"
    },
    {
      "anonymous": false,
      "inputs": [
        {
          "indexed": true,
          "internalType": "address",
          "name": "owner",
          "type": "address"
        },
        {
          "indexed": true,
          "internalType": "address",
          "name": "approved",
          "type": "address"
        },
        {
          "indexed": true,
          "internalType": "uint256",
          "name": "tokenId",
          "type": "uint256"
        }
      ],
      "name": "Approval",
      "type": "event"
    },
    {
      "anonymous": false,
      "inputs": [
        {
          "indexed": true,
          "internalType": "address",
          "name": "owner",
          "type": "address"
        },
        {
          "indexed": true,
          "internalType": "address",
          "name": "operator",
          "type": "address"
        },
        {
          "indexed": false,
          "internalType": "bool",
          "name": "approved",
          "type": "bool"
        }
      ],
      "name": "ApprovalForAll",
      "type": "event"
    },
    {
      "anonymous": false,
      "inputs": [
        {
          "indexed": true,
          "internalType": "address",
          "name": "user",
          "type": "address"
        },
        {
          "indexed": false,
          "internalType": "bool",
          "name": "verified",
          "type": "bool"
        },
        {
          "indexed": false,
          "internalType": "uint256",
          "name": "level",
          "type": "uint256"
        }
      ],
      "name": "KYCUpdated",
      "type": "event"
    },
    {
      "anonymous": false,
      "inputs": [
        {
          "indexed": true,
          "internalType": "address",
          "name": "previousOwner",
          "type": "address"
        },
        {
          "indexed": true,
          "internalType": "address",
          "name": "newOwner",
          "type": "address"
        }
      ],
      "name": "OwnershipTransferred",
      "type": "event"
    },
    {
      "anonymous": false,
      "inputs": [
        {
          "indexed": true,
          "internalType": "uint256",
          "name": "tokenId",
          "type": "uint256"
        },
        {
          "indexed": false,
          "internalType": "uint256",
          "name": "totalValue",
          "type": "uint256"
        },
        {
          "indexed": false,
          "internalType": "address",
          "name": "yieldToken",
          "type": "address"
        }
      ],
      "name": "PropertyTokenized",
      "type": "event"
    },
    {
      "anonymous": false,
      "inputs": [
        {
          "indexed": true,
          "internalType": "uint256",
          "name": "tokenId",
          "type": "uint256"
        },
        {
          "indexed": false,
          "internalType": "address",
          "name": "buyer",
          "type": "address"
        },
        {
          "indexed": false,
          "internalType": "uint256",
          "name": "shares",
          "type": "uint256"
        },
        {
          "indexed": false,
          "internalType": "uint256",
          "name": "cost",
          "type": "uint256"
        }
      ],
      "name": "SharesPurchased",
      "type": "event"
    },
    {
      "anonymous": false,
      "inputs": [
        {
          "indexed": true,
          "internalType": "address",
          "name": "from",
          "type": "address"
        },
        {
          "indexed": true,
          "internalType": "address",
          "name": "to",
          "type": "address"
        },
        {
          "indexed": true,
          "internalType": "uint256",
          "name": "tokenId",
          "type": "uint256"
        }
      ],
      "name": "Transfer",
      "type": "event"
    },
    {
      "anonymous": false,
      "inputs": [
        {
          "indexed": true,
          "internalType": "uint256",
          "name": "tokenId",
          "type": "uint256"
        },
        {
          "indexed": false,
          "internalType": "uint256",
          "name": "amount",
          "type": "uint256"
        }
      ],
      "name": "YieldDistributed",
      "type": "event"
    },
    {
      "inputs": [
        {
          "internalType": "address",
          "name": "to",
          "type": "address"
        },
        {
          "internalType": "uint256",
          "name": "tokenId",
          "type": "uint256"
        }
      ],
      "name": "approve",
      "outputs": [],
      "stateMutability": "nonpayable",
      "type": "function"
    },
    {
      "inputs": [
        {
          "internalType": "address",
          "name": "owner",
          "type": "address"
        }
      ],
      "name": "balanceOf",
      "outputs": [
        {
          "internalType": "uint256",
          "name": "",
          "type": "uint256"
        }
      ],
      "stateMutability": "view",
      "type": "function"
    },
    {
      "inputs": [
        {
          "internalType": "uint256",
          "name": "tokenId",
          "type": "uint256"
        },
        {
          "internalType": "address",
          "name": "user",
          "type": "address"
        }
      ],
      "name": "calculateYield",
      "outputs": [
        {
          "internalType": "uint256",
          "name": "",
          "type": "uint256"
        }
      ],
      "stateMutability": "view",
      "type": "function"
    },
    {
      "inputs": [],
      "name": "complianceOracle",
      "outputs": [
        {
          "internalType": "address",
          "name": "",
          "type": "address"
        }
      ],
      "stateMutability": "view",
      "type": "function"
    },
    {
      "inputs": [
        {
          "internalType": "uint256",
          "name": "tokenId",
          "type": "uint256"
        }
      ],
      "name": "distributeYield",
      "outputs": [],
      "stateMutability": "payable",
      "type": "function"
    },
    {
      "inputs": [
        {
          "internalType": "uint256",
          "name": "tokenId",
          "type": "uint256"
        }
      ],
      "name": "getApproved",
      "outputs": [
        {
          "internalType": "address",
          "name": "",
          "type": "address"
        }
      ],
      "stateMutability": "view",
      "type": "function"
    },
    {
      "inputs": [
        {
          "internalType": "uint256",
          "name": "tokenId",
          "type": "uint256"
        }
      ],
      "name": "getProperty",
      "outputs": [
        {
          "components": [
            {
              "internalType": "string",
              "name": "metadataURI",
              "type": "string"
            },
            {
              "internalType": "uint256",
              "name": "totalValue",
              "type": "uint256"
            },
            {
              "internalType": "uint256",
              "name": "totalShares",
              "type": "uint256"
            },
            {
              "internalType": "uint256",
              "name": "monthlyRent",
              "type": "uint256"
            },
            {
              "internalType": "address",
              "name": "yieldToken",
              "type": "address"
            },
            {
              "internalType": "bool",
              "name": "isActive",
              "type": "bool"
            },
            {
              "internalType": "uint256",
              "name": "lastDistribution",
              "type": "uint256"
            }
          ],
          "internalType": "struct RWAProperty.Property",
          "name": "",
          "type": "tuple"
        }
      ],
      "stateMutability": "view",
      "type": "function"
    },
    {
      "inputs": [
        {
          "internalType": "address",
          "name": "owner",
          "type": "address"
        },
        {
          "internalType": "address",
          "name": "operator",
          "type": "address"
        }
      ],
      "name": "isApprovedForAll",
      "outputs": [
        {
          "internalType": "bool",
          "name": "",
          "type": "bool"
        }
      ],
      "stateMutability": "view",
      "type": "function"
    },
    {
      "inputs": [
        {
          "internalType": "address",
          "name": "",
          "type": "address"
        }
      ],
      "name": "kycStatus",
      "outputs": [
        {
          "internalType": "bool",
          "name": "isVerified",
          "type": "bool"
        },
        {
          "internalType": "uint256",
          "name": "verificationLevel",
          "type": "uint256"
        },
        {
          "internalType": "bytes32",
          "name": "dataHash",
          "type": "bytes32"
        }
      ],
      "stateMutability": "view",
      "type": "function"
    },
    {
      "inputs": [],
      "name": "name",
      "outputs": [
        {
          "internalType": "string",
          "name": "",
          "type": "string"
        }
      ],
      "stateMutability": "view",
      "type": "function"
    },
    {
      "inputs": [],
      "name": "owner",
      "outputs": [
        {
          "internalType": "address",
          "name": "",
          "type": "address"
        }
      ],
      "stateMutability": "view",
      "type": "function"
    },
    {
      "inputs": [
        {
          "internalType": "uint256",
          "name": "tokenId",
          "type": "uint256"
        }
      ],
      "name": "ownerOf",
      "outputs": [
        {
          "internalType": "address",
          "name": "",
          "type": "address"
        }
      ],
      "stateMutability": "view",
      "type": "function"
    },
    {
      "inputs": [
        {
          "internalType": "uint256",
          "name": "",
          "type": "uint256"
        }
      ],
      "name": "properties",
      "outputs": [
        {
          "internalType": "string",
          "name": "metadataURI",
          "type": "string"
        },
        {
          "internalType": "uint256",
          "name": "totalValue",
          "type": "uint256"
        },
        {
          "internalType": "uint256",
          "name": "totalShares",
          "type": "uint256"
        },
        {
          "internalType": "uint256",
          "name": "monthlyRent",
          "type": "uint256"
        },
        {
          "internalType": "address",
          "name": "yieldToken",
          "type": "address"
        },
        {
          "internalType": "bool",
          "name": "isActive",
          "type": "bool"
        },
        {
          "internalType": "uint256",
          "name": "lastDistribution",
          "type": "uint256"
        }
      ],
      "stateMutability": "view",
      "type": "function"
    },
    {
      "inputs": [
        {
          "internalType": "uint256",
          "name": "tokenId",
          "type": "uint256"
        },
        {
          "internalType": "uint256",
          "name": "shares",
          "type": "uint256"
        }
      ],
      "name": "purchaseShares",
      "outputs": [],
      "stateMutability": "payable",
      "type": "function"
    },
    {
      "inputs": [],
      "name": "renounceOwnership",
      "outputs": [],
      "stateMutability": "nonpayable",
      "type": "function"
    },
    {
      "inputs": [
        {
          "internalType": "address",
          "name": "from",
          "type": "address"
        },
        {
          "internalType": "address",
          "name": "to",
          "type": "address"
        },
        {
          "internalType": "uint256",
          "name": "tokenId",
          "type": "uint256"
        }
      ],
      "name": "safeTransferFrom",
      "outputs": [],
      "stateMutability": "nonpayable",
      "type": "function"
    },
    {
      "inputs": [
        {
          "internalType": "address",
          "name": "from",
          "type": "address"
        },
        {
          "internalType": "address",
          "name": "to",
          "type": "address"
        },
        {
          "internalType": "uint256",
          "name": "tokenId",
          "type": "uint256"
        },
        {
          "internalType": "bytes",
          "name": "data",
          "type": "bytes"
        }
      ],
      "name": "safeTransferFrom",
      "outputs": [],
      "stateMutability": "nonpayable",
      "type": "function"
    },
    {
      "inputs": [
        {
          "internalType": "address",
          "name": "operator",
          "type": "address"
        },
        {
          "internalType": "bool",
          "name": "approved",
          "type": "bool"
        }
      ],
      "name": "setApprovalForAll",
      "outputs": [],
      "stateMutability": "nonpayable",
      "type": "function"
    },
    {
      "inputs": [
        {
          "internalType": "uint256",
          "name": "",
          "type": "uint256"
        },
        {
          "internalType": "address",
          "name": "",
          "type": "address"
        }
      ],
      "name": "shareholdings",
      "outputs": [
        {
          "internalType": "uint256",
          "name": "",
          "type": "uint256"
        }
      ],
      "stateMutability": "view",
      "type": "function"
    },
    {
      "inputs": [
        {
          "internalType": "bytes4",
          "name": "interfaceId",
          "type": "bytes4"
        }
      ],
      "name": "supportsInterface",
      "outputs": [
        {
          "internalType": "bool",
          "name": "",
          "type": "bool"
        }
      ],
      "stateMutability": "view",
      "type": "function"
    },
    {
      "inputs": [],
      "name": "symbol",
      "outputs": [
        {
          "internalType": "string",
          "name": "",
          "type": "string"
        }
      ],
      "stateMutability": "view",
      "type": "function"
    },
    {
      "inputs": [
        {
          "internalType": "uint256",
          "name": "tokenId",
          "type": "uint256"
        }
      ],
      "name": "tokenURI",
      "outputs": [
        {
          "internalType": "string",
          "name": "",
          "type": "string"
        }
      ],
      "stateMutability": "view",
      "type": "function"
    },
    {
      "inputs": [
        {
          "internalType": "string",
          "name": "metadataURI",
          "type": "string"
        },
        {
          "internalType": "uint256",
          "name": "totalValue",
          "type": "uint256"
        },
        {
          "internalType": "uint256",
          "name": "totalShares",
          "type": "uint256"
        },
        {
          "internalType": "uint256",
          "name": "monthlyRent",
          "type": "uint256"
        }
      ],
      "name": "tokenizeProperty",
      "outputs": [
        {
          "internalType": "uint256",
          "name": "",
          "type": "uint256"
        }
      ],
      "stateMutability": "nonpayable",
      "type": "function"
    },
    {
      "inputs": [
        {
          "internalType": "address",
          "name": "from",
          "type": "address"
        },
        {
          "internalType": "address",
          "name": "to",
          "type": "address"
        },
        {
          "internalType": "uint256",
          "name": "tokenId",
          "type": "uint256"
        }
      ],
      "name": "transferFrom",
      "outputs": [],
      "stateMutability": "nonpayable",
      "type": "function"
    },
    {
      "inputs": [
        {
          "internalType": "address",
          "name": "newOwner",
          "type": "address"
        }
      ],
      "name": "transferOwnership",
      "outputs": [],
      "stateMutability": "nonpayable",
      "type": "function"
    },
    {
      "inputs": [
        {
          "internalType": "address",
          "name": "user",
          "type": "address"
        },
        {
          "internalType": "bool",
          "name": "verified",
          "type": "bool"
        },
        {
          "internalType": "uint256",
          "name": "level",
          "type": "uint256"
        },
        {
          "internalType": "bytes32",
          "name": "dataHash",
          "type": "bytes32"
        }
      ],
      "name": "updateKYC",
      "outputs": [],
      "stateMutability": "nonpayable",
      "type": "function"
    }
  ],
  "bytecode": "0x60806040523480156200001157600080fd5b50604051620039b7380380620039b7833981016040819052620000349162000134565b6040518060400160405280600c81526020016b5257412050726f706572747960a01b815250604051806040016040528060048152602001630525741560e41b81525081600090816200008791906200020b565b5060016200009682826200020b565b505050620000b3620000ad620000de60201b60201c565b620000e2565b6001600755600c80546001600160a01b0319166001600160a01b0392909216919091179055620002d7565b3390565b600680546001600160a01b038381166001600160a01b0319831681179093556040519116919082907f8be0079c531659141344cd1fd0a4f28419497f9722a3daafe3b4186f6b6457e090600090a35050565b6000602082840312156200014757600080fd5b81516001600160a01b03811681146200015f57600080fd5b9392505050565b634e487b7160e01b600052604160045260246000fd5b600181811c908216806200019157607f821691505b602082108103620001b257634e487b7160e01b600052602260045260246000fd5b50919050565b601f8211156200020657600081815260208120601f850160051c81016020861015620001e15750805b601f850160051c820191505b818110156200020257828155600101620001ed565b5050505b505050565b81516001600160401b0381111562000227576200022762000166565b6200023f816200023884546200017c565b84620001b8565b602080601f8311600181146200027757600084156200025e5750858301515b600019600386901b1c1916600185901b17855562000202565b600085815260208120601f198616915b82811015620002a85788860151825594840194600190910190840162000287565b5085821015620002c75787850151600019600388901b60f8161c191681555b5050505050600190811b01905550565b6136d080620002e76000396000f3fe608060405260043610620001a15760003560e01c80637cf96c2711620000e2578063bbb4ef411162000095578063d2bcdc60116200006c578063d2bcdc601462000548578063e985e9c5146200055f578063f2fde38b14620005ac578063f7b1080814620005d157600080fd5b8063bbb4ef4114620004e7578063c87b56dd146200050c578063c8cc5cd8146200053157600080fd5b80637cf96c2714620004045780638da5cb5b146200042957806395d89b411462000449578063a22cb4651462000461578063ac22be841462000486578063b88d4fde14620004c257600080fd5b806332665ffb116200015857806346cc599e116200012f57806346cc599e14620003405780636352211e14620003a257806370a0823114620003c7578063715018a614620003ec57600080fd5b806332665ffb14620002c5578063410239bf14620002f957806342842e0e146200031b57600080fd5b806301ffc9a714620001a657806306fdde0314620001e0578063081812fc1462000207578063095ea7b314620002455780631abe0e23146200026c57806323b872dd14620002a0575b600080fd5b348015620001b357600080fd5b50620001cb620001c536600462001e0c565b6200060b565b60405190151581526020015b60405180910390f35b348015620001ed57600080fd5b50620001f86200065f565b604051620001d7919062001e80565b3480156200021457600080fd5b506200022c6200022636600462001e95565b620006f9565b6040516001600160a01b039091168152602001620001d7565b3480156200025257600080fd5b506200026a6200026436600462001ecc565b62000722565b005b3480156200027957600080fd5b50620002916200028b36600462001f8c565b62000846565b604051908152602001620001d7565b348015620002ad57600080fd5b506200026a620002bf36600462001ff9565b62000a20565b348015620002d257600080fd5b50620002ea620002e436600462001e95565b62000a58565b604051620001d791906200203a565b3480156200030657600080fd5b50600c546200022c906001600160a01b031681565b3480156200032857600080fd5b506200026a6200033a36600462001ff9565b62000baa565b3480156200034d57600080fd5b50620003846200035f366004620020ab565b60096020526000908152604090208054600182015460029092015460ff909116919083565b604080519315158452602084019290925290820152606001620001d7565b348015620003af57600080fd5b506200022c620003c136600462001e95565b62000bc7565b348015620003d457600080fd5b5062000291620003e6366004620020ab565b62000c29565b348015620003f957600080fd5b506200026a62000cb1565b3480156200041157600080fd5b506200026a62000423366004620020da565b62000cc9565b3480156200043657600080fd5b506006546001600160a01b03166200022c565b3480156200045657600080fd5b50620001f862000daf565b3480156200046e57600080fd5b506200026a6200048036600462002121565b62000dc0565b3480156200049357600080fd5b5062000291620004a536600462002159565b600a60209081526000928352604080842090915290825290205481565b348015620004cf57600080fd5b506200026a620004e13660046200217f565b62000dd1565b348015620004f457600080fd5b50620002916200050636600462002159565b62000e10565b3480156200051957600080fd5b50620001f86200052b36600462001e95565b62000f7f565b6200026a6200054236600462001e95565b62000ffc565b6200026a6200055936600462002204565b62001121565b3480156200056c57600080fd5b50620001cb6200057e36600462002227565b6001600160a01b03918216600090815260056020908152604080832093909416825291909152205460ff1690565b348015620005b957600080fd5b506200026a620005cb366004620020ab565b6200139e565b348015620005de57600080fd5b50620005f6620005f036600462001e95565b6200141d565b604051620001d7979695949392919062002256565b60006001600160e01b031982166380ac58cd60e01b14806200063d57506001600160e01b03198216635b5e139f60e01b145b806200065957506301ffc9a760e01b6001600160e01b03198316145b92915050565b6060600080546200067090620022a7565b80601f01602080910402602001604051908101604052809291908181526020018280546200069e90620022a7565b8015620006ef5780601f10620006c357610100808354040283529160200191620006ef565b820191906000526020600020905b815481529060010190602001808311620006d157829003601f168201915b5050505050905090565b60006200070682620014f9565b506000908152600460205260409020546001600160a01b031690565b60006200072f8262000bc7565b9050806001600160a01b0316836001600160a01b031603620007a25760405162461bcd60e51b815260206004820152602160248201527f4552433732313a20617070726f76616c20746f2063757272656e74206f776e656044820152603960f91b60648201526084015b60405180910390fd5b336001600160a01b0382161480620007c15750620007c181336200057e565b620008355760405162461bcd60e51b815260206004820152603d60248201527f4552433732313a20617070726f76652063616c6c6572206973206e6f7420746f60448201527f6b656e206f776e6572206f7220617070726f76656420666f7220616c6c000000606482015260840162000799565b6200084183836200155a565b505050565b600062000852620015ca565b600b8054600091826200086583620022f9565b9190505590506000620008788262001626565b6040516020016200088a919062002315565b604051602081830303815290604052620008a48362001626565b604051602001620008b6919062002358565b60405160208183030381529060405286604051620008d49062001de7565b620008e29392919062002384565b604051809103906000f080158015620008ff573d6000803e3d6000fd5b506040805160e08101825289815260208082018a9052818301899052606082018890526001600160a01b0384166080830152600160a08301524260c0830152600086815260089091529190912081519293509091819062000961908262002410565b50602082015160018201556040820151600282015560608201516003820155608082015160048201805460a08501511515600160a01b026001600160a81b03199091166001600160a01b039093169290921791909117905560c090910151600590910155620009d13083620016c0565b604080518781526001600160a01b038316602082015283917fa10aea30cb750071da8d0e7e583ae13911260230fa69df3edb9f3704f598dd56910160405180910390a25090505b949350505050565b62000a2c338262001851565b62000a4b5760405162461bcd60e51b81526004016200079990620024dd565b62000841838383620018d5565b62000aa46040518060e001604052806060815260200160008152602001600081526020016000815260200160006001600160a01b03168152602001600015158152602001600081525090565b60008281526008602052604090819020815160e0810190925280548290829062000ace90620022a7565b80601f016020809104026020016040519081016040528092919081815260200182805462000afc90620022a7565b801562000b4d5780601f1062000b215761010080835404028352916020019162000b4d565b820191906000526020600020905b81548152906001019060200180831162000b2f57829003601f168201915b505050918352505060018201546020820152600282015460408201526003820154606082015260048201546001600160a01b0381166080830152600160a01b900460ff16151560a082015260059091015460c09091015292915050565b620008418383836040518060200160405280600081525062000dd1565b6000818152600260205260408120546001600160a01b031680620006595760405162461bcd60e51b8152602060048201526018602482015277115490cdcc8c4e881a5b9d985b1a59081d1bdad95b88125160421b604482015260640162000799565b60006001600160a01b03821662000c955760405162461bcd60e51b815260206004820152602960248201527f4552433732313a2061646472657373207a65726f206973206e6f7420612076616044820152683634b21037bbb732b960b91b606482015260840162000799565b506001600160a01b031660009081526003602052604090205490565b62000cbb620015ca565b62000cc7600062001a45565b565b600c546001600160a01b0316331462000d1e5760405162461bcd60e51b81526020600482015260166024820152754f6e6c7920636f6d706c69616e6365206f7261636c6560501b604482015260640162000799565b6040805160608101825284151580825260208083018681528385018681526001600160a01b038a166000818152600985528790209551865460ff191690151517865591516001860155516002909401939093558351918252810185905290917f80c26f5c255b344c21ce987835b0e9e2cb947ac7574ca982e1e64e8e705dc51a91015b60405180910390a250505050565b6060600180546200067090620022a7565b62000dcd33838362001a97565b5050565b62000ddd338362001851565b62000dfc5760405162461bcd60e51b81526004016200079990620024dd565b62000e0a8484848462001b67565b50505050565b600082815260086020526040808220815160e081019092528054839291908290829062000e3d90620022a7565b80601f016020809104026020016040519081016040528092919081815260200182805462000e6b90620022a7565b801562000ebc5780601f1062000e905761010080835404028352916020019162000ebc565b820191906000526020600020905b81548152906001019060200180831162000e9e57829003601f168201915b5050509183525050600182015460208083019190915260028301546040808401919091526003840154606084015260048401546001600160a01b038082166080860152600160a01b90910460ff16151560a085015260059094015460c0909301929092526000888152600a82528281209388168152929052808220549083015192935091900362000f535760009250505062000659565b816040015181836060015162000f6a91906200252a565b62000f76919062002544565b95945050505050565b606062000f8c82620014f9565b600062000fa460408051602081019091526000815290565b9050600081511162000fc6576040518060200160405280600081525062000ff5565b8062000fd28462001626565b60405160200162000fe592919062002567565b6040516020818303038152906040525b9392505050565b62001006620015ca565b60008181526008602052604090206004810154600160a01b900460ff16620010675760405162461bcd60e51b815260206004820152601360248201527250726f7065727479206e6f742061637469766560681b604482015260640162000799565b600480820154604080516318160ddd60e01b815290516001600160a01b039092169260009284926318160ddd92818101926020929091908290030181865afa158015620010b8573d6000803e3d6000fd5b505050506040513d601f19601f82011682018060405250810190620010de91906200259a565b90508015620010ee574260058401555b837ffe4996cd48c364c468cee70dd6b9061874ff01b05c5ea49311cbcabd9b9cb6153460405162000da191815260200190565b6200112b62001ba1565b3360009081526009602052604090205460ff166200118c5760405162461bcd60e51b815260206004820152601960248201527f4b594320766572696669636174696f6e20726571756972656400000000000000604482015260640162000799565b600082815260086020526040902060040154600160a01b900460ff16620011ec5760405162461bcd60e51b815260206004820152601360248201527250726f7065727479206e6f742061637469766560681b604482015260640162000799565b60008281526008602052604081206002810154600182015491929162001213919062002544565b905060006200122384836200252a565b9050803410156200126e5760405162461bcd60e51b8152602060048201526014602482015273125b9cdd59999a58da595b9d081c185e5b595b9d60621b604482015260640162000799565b6004838101546040516340c10f1960e01b81523392810192909252602482018690526001600160a01b0316906340c10f1990604401600060405180830381600087803b158015620012be57600080fd5b505af1158015620012d3573d6000803e3d6000fd5b5050506000868152600a602090815260408083203384529091528120805487935090919062001304908490620025b4565b9091555050348110156200134d57336108fc620013228334620025ca565b6040518115909202916000818181858888f193505050501580156200134b573d6000803e3d6000fd5b505b604080513381526020810186905290810182905285907fce81571c08c76465bdf390ad1abe80af8c51c6c4566e3485f9395f13d5ad63289060600160405180910390a250505062000dcd6001600755565b620013a8620015ca565b6001600160a01b0381166200140f5760405162461bcd60e51b815260206004820152602660248201527f4f776e61626c653a206e6577206f776e657220697320746865207a65726f206160448201526564647265737360d01b606482015260840162000799565b6200141a8162001a45565b50565b6008602052600090815260409020805481906200143a90620022a7565b80601f01602080910402602001604051908101604052809291908181526020018280546200146890620022a7565b8015620014b95780601f106200148d57610100808354040283529160200191620014b9565b820191906000526020600020905b8154815290600101906020018083116200149b57829003601f168201915b50505060018401546002850154600386015460048701546005909701549596929591945092506001600160a01b0382169160ff600160a01b909104169087565b6000818152600260205260409020546001600160a01b03166200141a5760405162461bcd60e51b8152602060048201526018602482015277115490cdcc8c4e881a5b9d985b1a59081d1bdad95b88125160421b604482015260640162000799565b600081815260046020526040902080546001600160a01b0319166001600160a01b0384169081179091558190620015918262000bc7565b6001600160a01b03167f8c5be1e5ebec7d5bd14f71427d1e84f3dd0314c0f7b2291e5b200ac8c7c3b92560405160405180910390a45050565b6006546001600160a01b0316331462000cc75760405162461bcd60e51b815260206004820181905260248201527f4f776e61626c653a2063616c6c6572206973206e6f7420746865206f776e6572604482015260640162000799565b60606000620016358362001bfc565b600101905060008167ffffffffffffffff81111562001658576200165862001ef9565b6040519080825280601f01601f19166020018201604052801562001683576020820181803683370190505b5090508181016020015b600019016f181899199a1a9b1b9c1cb0b131b232b360811b600a86061a8153600a85049450846200168d57509392505050565b6001600160a01b038216620017185760405162461bcd60e51b815260206004820181905260248201527f4552433732313a206d696e7420746f20746865207a65726f2061646472657373604482015260640162000799565b6000818152600260205260409020546001600160a01b0316156200177f5760405162461bcd60e51b815260206004820152601c60248201527f4552433732313a20746f6b656e20616c7265616479206d696e74656400000000604482015260640162000799565b6000818152600260205260409020546001600160a01b031615620017e65760405162461bcd60e51b815260206004820152601c60248201527f4552433732313a20746f6b656e20616c7265616479206d696e74656400000000604482015260640162000799565b6001600160a01b038216600081815260036020908152604080832080546001019055848352600290915280822080546001600160a01b0319168417905551839291907fddf252ad1be2c89b69c2b068fc378daa952ba7f163c4a11628f55a4df523b3ef908290a45050565b6000806200185f8362000bc7565b9050806001600160a01b0316846001600160a01b03161480620018a757506001600160a01b0380821660009081526005602090815260408083209388168352929052205460ff165b8062000a185750836001600160a01b0316620018c384620006f9565b6001600160a01b031614949350505050565b826001600160a01b0316620018ea8262000bc7565b6001600160a01b031614620019135760405162461bcd60e51b81526004016200079990620025e0565b6001600160a01b038216620019775760405162461bcd60e51b8152602060048201526024808201527f4552433732313a207472616e7366657220746f20746865207a65726f206164646044820152637265737360e01b606482015260840162000799565b826001600160a01b03166200198c8262000bc7565b6001600160a01b031614620019b55760405162461bcd60e51b81526004016200079990620025e0565b600081815260046020908152604080832080546001600160a01b03199081169091556001600160a01b0387811680865260038552838620805460001901905590871680865283862080546001019055868652600290945282852080549092168417909155905184937fddf252ad1be2c89b69c2b068fc378daa952ba7f163c4a11628f55a4df523b3ef91a4505050565b600680546001600160a01b038381166001600160a01b0319831681179093556040519116919082907f8be0079c531659141344cd1fd0a4f28419497f9722a3daafe3b4186f6b6457e090600090a35050565b816001600160a01b0316836001600160a01b03160362001afa5760405162461bcd60e51b815260206004820152601960248201527f4552433732313a20617070726f766520746f2063616c6c657200000000000000604482015260640162000799565b6001600160a01b03838116600081815260056020908152604080832094871680845294825291829020805460ff191686151590811790915591519182527f17307eab39ab6107e8899845ad3d59bd9653f200f220920489ca2b5937696c31910160405180910390a3505050565b62001b74848484620018d5565b62001b828484848462001cdb565b62000e0a5760405162461bcd60e51b8152600401620007999062002625565b60026007540362001bf55760405162461bcd60e51b815260206004820152601f60248201527f5265656e7472616e637947756172643a207265656e7472616e742063616c6c00604482015260640162000799565b6002600755565b60008072184f03e93ff9f4daa797ed6e38ed64bf6a1f0160401b831062001c3c5772184f03e93ff9f4daa797ed6e38ed64bf6a1f0160401b830492506040015b6d04ee2d6d415b85acef8100000000831062001c69576d04ee2d6d415b85acef8100000000830492506020015b662386f26fc10000831062001c8857662386f26fc10000830492506010015b6305f5e100831062001ca1576305f5e100830492506008015b612710831062001cb657612710830492506004015b6064831062001cc9576064830492506002015b600a8310620006595760010192915050565b60006001600160a01b0384163b1562001dde57604051630a85bd0160e11b81526001600160a01b0385169063150b7a029062001d2290339089908890889060040162002677565b6020604051808303816000875af192505050801562001d60575060408051601f3d908101601f1916820190925262001d5d91810190620026b6565b60015b62001dc3573d80801562001d91576040519150601f19603f3d011682016040523d82523d6000602084013e62001d96565b606091505b50805160000362001dbb5760405162461bcd60e51b8152600401620007999062002625565b805181602001fd5b6001600160e01b031916630a85bd0160e11b14905062000a18565b50600162000a18565b610fc480620026d783390190565b6001600160e01b0319811681146200141a57600080fd5b60006020828403121562001e1f57600080fd5b813562000ff58162001df5565b60005b8381101562001e4957818101518382015260200162001e2f565b50506000910152565b6000815180845262001e6c81602086016020860162001e2c565b601f01601f19169290920160200192915050565b60208152600062000ff5602083018462001e52565b60006020828403121562001ea857600080fd5b5035919050565b80356001600160a01b038116811462001ec757600080fd5b919050565b6000806040838503121562001ee057600080fd5b62001eeb8362001eaf565b946020939093013593505050565b634e487b7160e01b600052604160045260246000fd5b600067ffffffffffffffff8084111562001f2d5762001f2d62001ef9565b604051601f8501601f19908116603f0116810190828211818310171562001f585762001f5862001ef9565b8160405280935085815286868601111562001f7257600080fd5b858560208301376000602087830101525050509392505050565b6000806000806080858703121562001fa357600080fd5b843567ffffffffffffffff81111562001fbb57600080fd5b8501601f8101871362001fcd57600080fd5b62001fde8782356020840162001f0f565b97602087013597506040870135966060013595509350505050565b6000806000606084860312156200200f57600080fd5b6200201a8462001eaf565b92506200202a6020850162001eaf565b9150604084013590509250925092565b602081526000825160e060208401526200205961010084018262001e52565b905060208401516040840152604084015160608401526060840151608084015260018060a01b0360808501511660a084015260a0840151151560c084015260c084015160e08401528091505092915050565b600060208284031215620020be57600080fd5b62000ff58262001eaf565b8035801515811462001ec757600080fd5b60008060008060808587031215620020f157600080fd5b620020fc8562001eaf565b93506200210c60208601620020c9565b93969395505050506040820135916060013590565b600080604083850312156200213557600080fd5b620021408362001eaf565b91506200215060208401620020c9565b90509250929050565b600080604083850312156200216d57600080fd5b82359150620021506020840162001eaf565b600080600080608085870312156200219657600080fd5b620021a18562001eaf565b9350620021b16020860162001eaf565b925060408501359150606085013567ffffffffffffffff811115620021d557600080fd5b8501601f81018713620021e757600080fd5b620021f88782356020840162001f0f565b91505092959194509250565b600080604083850312156200221857600080fd5b50508035926020909101359150565b600080604083850312156200223b57600080fd5b620022468362001eaf565b9150620021506020840162001eaf565b60e0815260006200226b60e083018a62001e52565b602083019890985250604081019590955260608501939093526001600160a01b03919091166080840152151560a083015260c090910152919050565b600181811c90821680620022bc57607f821691505b602082108103620022dd57634e487b7160e01b600052602260045260246000fd5b50919050565b634e487b7160e01b600052601160045260246000fd5b6000600182016200230e576200230e620022e3565b5060010190565b680283937b832b93a3c960bd1b8152600082516200233b81600985016020870162001e2c565b6508165a595b1960d21b6009939091019283015250600f01919050565b61505960f01b8152600082516200237781600285016020870162001e2c565b9190910160020192915050565b60608152600062002399606083018662001e52565b8281036020840152620023ad818662001e52565b915050826040830152949350505050565b601f8211156200084157600081815260208120601f850160051c81016020861015620023e75750805b601f850160051c820191505b818110156200240857828155600101620023f3565b505050505050565b815167ffffffffffffffff8111156200242d576200242d62001ef9565b62002445816200243e8454620022a7565b84620023be565b602080601f8311600181146200247d5760008415620024645750858301515b600019600386901b1c1916600185901b17855562002408565b600085815260208120601f198616915b82811015620024ae578886015182559484019460019091019084016200248d565b5085821015620024cd5787850151600019600388901b60f8161c191681555b5050505050600190811b01905550565b6020808252602d908201527f4552433732313a2063616c6c6572206973206e6f7420746f6b656e206f776e6560408201526c1c881bdc88185c1c1c9bdd9959609a1b606082015260800190565b8082028115828204841417620006595762000659620022e3565b6000826200256257634e487b7160e01b600052601260045260246000fd5b500490565b600083516200257b81846020880162001e2c565b8351908301906200259181836020880162001e2c565b01949350505050565b600060208284031215620025ad57600080fd5b5051919050565b80820180821115620006595762000659620022e3565b81810381811115620006595762000659620022e3565b60208082526025908201527f4552433732313a207472616e736665722066726f6d20696e636f72726563742060408201526437bbb732b960d91b606082015260800190565b60208082526032908201527f4552433732313a207472616e7366657220746f206e6f6e20455243373231526560408201527131b2b4bb32b91034b6b83632b6b2b73a32b960711b606082015260800190565b6001600160a01b0385811682528416602082015260408101839052608060608201819052600090620026ac9083018462001e52565b9695505050505050565b600060208284031215620026c957600080fd5b815162000ff58162001df556fe60806040523480156200001157600080fd5b5060405162000fc438038062000fc4833981016040819052620000349162000194565b8282600362000044838262000296565b50600462000053828262000296565b505050620000706200006a6200007960201b60201c565b6200007d565b50505062000362565b3390565b600580546001600160a01b038381166001600160a01b0319831681179093556040519116919082907f8be0079c531659141344cd1fd0a4f28419497f9722a3daafe3b4186f6b6457e090600090a35050565b634e487b7160e01b600052604160045260246000fd5b600082601f830112620000f757600080fd5b81516001600160401b0380821115620001145762000114620000cf565b604051601f8301601f19908116603f011681019082821181831017156200013f576200013f620000cf565b816040528381526020925086838588010111156200015c57600080fd5b600091505b8382101562000180578582018301518183018401529082019062000161565b600093810190920192909252949350505050565b600080600060608486031215620001aa57600080fd5b83516001600160401b0380821115620001c257600080fd5b620001d087838801620000e5565b94506020860151915080821115620001e757600080fd5b50620001f686828701620000e5565b925050604084015190509250925092565b600181811c908216806200021c57607f821691505b6020821081036200023d57634e487b7160e01b600052602260045260246000fd5b50919050565b601f8211156200029157600081815260208120601f850160051c810160208610156200026c5750805b601f850160051c820191505b818110156200028d5782815560010162000278565b5050505b505050565b81516001600160401b03811115620002b257620002b2620000cf565b620002ca81620002c3845462000207565b8462000243565b602080601f831160018114620003025760008415620002e95750858301515b600019600386901b1c1916600185901b1785556200028d565b600085815260208120601f198616915b82811015620003335788860151825594840194600190910190840162000312565b5085821015620003525787850151600019600388901b60f8161c191681555b5050505050600190811b01905550565b610c5280620003726000396000f3fe608060405234801561001057600080fd5b50600436106101005760003560e01c8063715018a611610097578063a457c2d711610066578063a457c2d714610209578063a9059cbb1461021c578063dd62ed3e1461022f578063f2fde38b1461024257600080fd5b8063715018a6146101cb5780638da5cb5b146101d357806395d89b41146101ee5780639dc29fac146101f657600080fd5b8063313ce567116100d3578063313ce5671461016b578063395093511461017a57806340c10f191461018d57806370a08231146101a257600080fd5b806306fdde0314610105578063095ea7b31461012357806318160ddd1461014657806323b872dd14610158575b600080fd5b61010d610255565b60405161011a9190610a9c565b60405180910390f35b610136610131366004610b06565b6102e7565b604051901515815260200161011a565b6002545b60405190815260200161011a565b610136610166366004610b30565b610301565b6040516012815260200161011a565b610136610188366004610b06565b610325565b6101a061019b366004610b06565b610347565b005b61014a6101b0366004610b6c565b6001600160a01b031660009081526020819052604090205490565b6101a061035d565b6005546040516001600160a01b03909116815260200161011a565b61010d610371565b6101a0610204366004610b06565b610380565b610136610217366004610b06565b610392565b61013661022a366004610b06565b610412565b61014a61023d366004610b8e565b610420565b6101a0610250366004610b6c565b61044b565b60606003805461026490610bc1565b80601f016020809104026020016040519081016040528092919081815260200182805461029090610bc1565b80156102dd5780601f106102b2576101008083540402835291602001916102dd565b820191906000526020600020905b8154815290600101906020018083116102c057829003601f168201915b5050505050905090565b6000336102f58185856104c4565b60019150505b92915050565b60003361030f8582856105e9565b61031a858585610663565b506001949350505050565b6000336102f58185856103388383610420565b6103429190610bfb565b6104c4565b61034f610807565b6103598282610861565b5050565b610365610807565b61036f6000610920565b565b60606004805461026490610bc1565b610388610807565b6103598282610972565b600033816103a08286610420565b9050838110156104055760405162461bcd60e51b815260206004820152602560248201527f45524332303a2064656372656173656420616c6c6f77616e63652062656c6f77604482015264207a65726f60d81b60648201526084015b60405180910390fd5b61031a82868684036104c4565b6000336102f5818585610663565b6001600160a01b03918216600090815260016020908152604080832093909416825291909152205490565b610453610807565b6001600160a01b0381166104b85760405162461bcd60e51b815260206004820152602660248201527f4f776e61626c653a206e6577206f776e657220697320746865207a65726f206160448201526564647265737360d01b60648201526084016103fc565b6104c181610920565b50565b6001600160a01b0383166105265760405162461bcd60e51b8152602060048201526024808201527f45524332303a20617070726f76652066726f6d20746865207a65726f206164646044820152637265737360e01b60648201526084016103fc565b6001600160a01b0382166105875760405162461bcd60e51b815260206004820152602260248201527f45524332303a20617070726f766520746f20746865207a65726f206164647265604482015261737360f01b60648201526084016103fc565b6001600160a01b0383811660008181526001602090815260408083209487168084529482529182902085905590518481527f8c5be1e5ebec7d5bd14f71427d1e84f3dd0314c0f7b2291e5b200ac8c7c3b92591015b60405180910390a3505050565b60006105f58484610420565b9050600019811461065d57818110156106505760405162461bcd60e51b815260206004820152601d60248201527f45524332303a20696e73756666696369656e7420616c6c6f77616e636500000060448201526064016103fc565b61065d84848484036104c4565b50505050565b6001600160a01b0383166106c75760405162461bcd60e51b815260206004820152602560248201527f45524332303a207472616e736665722066726f6d20746865207a65726f206164604482015264647265737360d81b60648201526084016103fc565b6001600160a01b0382166107295760405162461bcd60e51b815260206004820152602360248201527f45524332303a207472616e7366657220746f20746865207a65726f206164647260448201526265737360e81b60648201526084016103fc565b6001600160a01b038316600090815260208190526040902054818110156107a15760405162461bcd60e51b815260206004820152602660248201527f45524332303a207472616e7366657220616d6f756e7420657863656564732062604482015265616c616e636560d01b60648201526084016103fc565b6001600160a01b03848116600081815260208181526040808320878703905593871680835291849020805487019055925185815290927fddf252ad1be2c89b69c2b068fc378daa952ba7f163c4a11628f55a4df523b3ef910160405180910390a361065d565b6005546001600160a01b0316331461036f5760405162461bcd60e51b815260206004820181905260248201527f4f776e61626c653a2063616c6c6572206973206e6f7420746865206f776e657260448201526064016103fc565b6001600160a01b0382166108b75760405162461bcd60e51b815260206004820152601f60248201527f45524332303a206d696e7420746f20746865207a65726f20616464726573730060448201526064016103fc565b80600260008282546108c99190610bfb565b90915550506001600160a01b038216600081815260208181526040808320805486019055518481527fddf252ad1be2c89b69c2b068fc378daa952ba7f163c4a11628f55a4df523b3ef910160405180910390a35050565b600580546001600160a01b038381166001600160a01b0319831681179093556040519116919082907f8be0079c531659141344cd1fd0a4f28419497f9722a3daafe3b4186f6b6457e090600090a35050565b6001600160a01b0382166109d25760405162461bcd60e51b815260206004820152602160248201527f45524332303a206275726e2066726f6d20746865207a65726f206164647265736044820152607360f81b60648201526084016103fc565b6001600160a01b03821660009081526020819052604090205481811015610a465760405162461bcd60e51b815260206004820152602260248201527f45524332303a206275726e20616d6f756e7420657863656564732062616c616e604482015261636560f01b60648201526084016103fc565b6001600160a01b0383166000818152602081815260408083208686039055600280548790039055518581529192917fddf252ad1be2c89b69c2b068fc378daa952ba7f163c4a11628f55a4df523b3ef91016105dc565b600060208083528351808285015260005b81811015610ac957858101830151858201604001528201610aad565b506000604082860101526040601f19601f8301168501019250505092915050565b80356001600160a01b0381168114610b0157600080fd5b919050565b60008060408385031215610b1957600080fd5b610b2283610aea565b946020939093013593505050565b600080600060608486031215610b4557600080fd5b610b4e84610aea565b9250610b5c60208501610aea565b9150604084013590509250925092565b600060208284031215610b7e57600080fd5b610b8782610aea565b9392505050565b60008060408385031215610ba157600080fd5b610baa83610aea565b9150610bb860208401610aea565b90509250929050565b600181811c90821680610bd557607f821691505b602082108103610bf557634e487b7160e01b600052602260045260246000fd5b50919050565b808201808211156102fb57634e487b7160e01b600052601160045260246000fdfea2646970667358221220ed691b043e3f944cb3465b45b2355188ace7ffb9d18478f5279f452ba0b051f464736f6c63430008130033a26469706673582212204d1132b64d38cbf2f24666810e69527f9d15037fbd4e50fa966ff1c6bfe7232964736f6c63430008130033",
  "linkReferences": {},
  "deployedLinkReferences": {}
}