{
  "_format": "hh-sol-artifact-1",
  "contractName": "AutoRecurringPayments",
  "sourceName": "shared/contracts/AutoRecurringPayments.sol",
  "abi": [
    {
      "inputs": [
        {
          "internalType": "address",
          "name": "_usdcToken",
          "type": "address"
        }
      ],
      "stateMutability": "nonpayable",
      "type": "constructor"
    },
    {
      "anonymous": false,
      "inputs": [
        {
          "indexed": true,
          "internalType": "address",
          "name": "executor",
          "type": "address"
        },
        {
          "indexed": false,
          "internalType": "uint256",
          "name": "reward",
          "type": "uint256"
        },
        {
          "indexed": false,
          "internalType": "bytes32",
          "name": "scheduleId",
          "type": "bytes32"
        }
      ],
      "name": "ExecutorRewarded",
      "type": "event"
    },
    {
      "anonymous": false,
      "inputs": [
        {
          "indexed": true,
          "internalType": "address",
          "name": "previousOwner",
          "type": "address"
        },
        {
          "indexed": true,
          "internalType": "address",
          "name": "newOwner",
          "type": "address"
        }
      ],
      "name": "OwnershipTransferred",
      "type": "event"
    },
    {
      "anonymous": false,
      "inputs": [
        {
          "indexed": true,
          "internalType": "bytes32",
          "name": "scheduleId",
          "type": "bytes32"
        },
        {
          "indexed": true,
          "internalType": "address",
          "name": "payer",
          "type": "address"
        },
        {
          "indexed": true,
          "internalType": "address",
          "name": "recipient",
          "type": "address"
        },
        {
          "indexed": false,
          "internalType": "uint256",
          "name": "amount",
          "type": "uint256"
        },
        {
          "indexed": false,
          "internalType": "address",
          "name": "executor",
          "type": "address"
        },
        {
          "indexed": false,
          "internalType": "uint256",
          "name": "reward",
          "type": "uint256"
        }
      ],
      "name": "PaymentExecuted",
      "type": "event"
    },
    {
      "anonymous": false,
      "inputs": [
        {
          "indexed": true,
          "internalType": "bytes32",
          "name": "scheduleId",
          "type": "bytes32"
        }
      ],
      "name": "PaymentScheduleCancelled",
      "type": "event"
    },
    {
      "anonymous": false,
      "inputs": [
        {
          "indexed": true,
          "internalType": "bytes32",
          "name": "scheduleId",
          "type": "bytes32"
        },
        {
          "indexed": true,
          "internalType": "address",
          "name": "payer",
          "type": "address"
        },
        {
          "indexed": true,
          "internalType": "address",
          "name": "recipient",
          "type": "address"
        },
        {
          "indexed": false,
          "internalType": "uint256",
          "name": "amount",
          "type": "uint256"
        },
        {
          "indexed": false,
          "internalType": "uint256",
          "name": "interval",
          "type": "uint256"
        },
        {
          "indexed": false,
          "internalType": "uint256",
          "name": "maxExecutions",
          "type": "uint256"
        },
        {
          "indexed": false,
          "internalType": "uint256",
          "name": "executorReward",
          "type": "uint256"
        }
      ],
      "name": "PaymentScheduleCreated",
      "type": "event"
    },
    {
      "anonymous": false,
      "inputs": [
        {
          "indexed": true,
          "internalType": "address",
          "name": "user",
          "type": "address"
        },
        {
          "indexed": false,
          "internalType": "uint256",
          "name": "maxAmountPerPayment",
          "type": "uint256"
        },
        {
          "indexed": false,
          "internalType": "uint256",
          "name": "maxTotalAmount",
          "type": "uint256"
        },
        {
          "indexed": false,
          "internalType": "uint256",
          "name": "validUntil",
          "type": "uint256"
        }
      ],
      "name": "PermissionGranted",
      "type": "event"
    },
    {
      "inputs": [],
      "name": "DEFAULT_EXECUTOR_REWARD",
      "outputs": [
        {
          "internalType": "uint256",
          "name": "",
          "type": "uint256"
        }
      ],
      "stateMutability": "view",
      "type": "function"
    },
    {
      "inputs": [],
      "name": "MAX_INTERVAL",
      "outputs": [
        {
          "internalType": "uint256",
          "name": "",
          "type": "uint256"
        }
      ],
      "stateMutability": "view",
      "type": "function"
    },
    {
      "inputs": [],
      "name": "MIN_EXECUTOR_REWARD",
      "outputs": [
        {
          "internalType": "uint256",
          "name": "",
          "type": "uint256"
        }
      ],
      "stateMutability": "view",
      "type": "function"
    },
    {
      "inputs": [],
      "name": "MIN_INTERVAL",
      "outputs": [
        {
          "internalType": "uint256",
          "name": "",
          "type": "uint256"
        }
      ],
      "stateMutability": "view",
      "type": "function"
    },
    {
      "inputs": [
        {
          "internalType": "bytes32",
          "name": "_scheduleId",
          "type": "bytes32"
        }
      ],
      "name": "cancelPaymentSchedule",
      "outputs": [],
      "stateMutability": "nonpayable",
      "type": "function"
    },
    {
      "inputs": [
        {
          "internalType": "address",
          "name": "_recipient",
          "type": "address"
        },
        {
          "internalType": "uint256",
          "name": "_amount",
          "type": "uint256"
        },
        {
          "internalType": "uint256",
          "name": "_interval",
          "type": "uint256"
        },
        {
          "internalType": "uint256",
          "name": "_maxExecutions",
          "type": "uint256"
        }
      ],
      "name": "createPaymentSchedule",
      "outputs": [
        {
          "internalType": "bytes32",
          "name": "",
          "type": "bytes32"
        }
      ],
      "stateMutability": "nonpayable",
      "type": "function"
    },
    {
      "inputs": [
        {
          "internalType": "address",
          "name": "_recipient",
          "type": "address"
        },
        {
          "internalType": "uint256",
          "name": "_amount",
          "type": "uint256"
        },
        {
          "internalType": "uint256",
          "name": "_interval",
          "type": "uint256"
        },
        {
          "internalType": "uint256",
          "name": "_maxExecutions",
          "type": "uint256"
        },
        {
          "internalType": "uint256",
          "name": "_executorReward",
          "type": "uint256"
        }
      ],
      "name": "createPaymentScheduleWithReward",
      "outputs": [
        {
          "internalType": "bytes32",
          "name": "",
          "type": "bytes32"
        }
      ],
      "stateMutability": "nonpayable",
      "type": "function"
    },
    {
      "inputs": [],
      "name": "emergencyPause",
      "outputs": [],
      "stateMutability": "nonpayable",
      "type": "function"
    },
    {
      "inputs": [
        {
          "internalType": "bytes32",
          "name": "_scheduleId",
          "type": "bytes32"
        }
      ],
      "name": "executePayment",
      "outputs": [],
      "stateMutability": "nonpayable",
      "type": "function"
    },
    {
      "inputs": [],
      "name": "getContractStats",
      "outputs": [
        {
          "internalType": "uint256",
          "name": "activeSchedules",
          "type": "uint256"
        },
        {
          "internalType": "uint256",
          "name": "totalSchedules",
          "type": "uint256"
        },
        {
          "internalType": "address",
          "name": "usdcTokenAddress",
          "type": "address"
        }
      ],
      "stateMutability": "view",
      "type": "function"
    },
    {
      "inputs": [
        {
          "internalType": "bytes32",
          "name": "_scheduleId",
          "type": "bytes32"
        }
      ],
      "name": "getSchedule",
      "outputs": [
        {
          "components": [
            {
              "internalType": "address",
              "name": "payer",
              "type": "address"
            },
            {
              "internalType": "address",
              "name": "recipient",
              "type": "address"
            },
            {
              "internalType": "uint256",
              "name": "amount",
              "type": "uint256"
            },
            {
              "internalType": "uint256",
              "name": "interval",
              "type": "uint256"
            },
            {
              "internalType": "uint256",
              "name": "nextPayment",
              "type": "uint256"
            },
            {
              "internalType": "uint256",
              "name": "maxExecutions",
              "type": "uint256"
            },
            {
              "internalType": "uint256",
              "name": "executionsLeft",
              "type": "uint256"
            },
            {
              "internalType": "bool",
              "name": "isActive",
              "type": "bool"
            },
            {
              "internalType": "uint256",
              "name": "createdAt",
              "type": "uint256"
            },
            {
              "internalType": "uint256",
              "name": "executorReward",
              "type": "uint256"
            }
          ],
          "internalType": "struct AutoRecurringPayments.PaymentSchedule",
          "name": "",
          "type": "tuple"
        }
      ],
      "stateMutability": "view",
      "type": "function"
    },
    {
      "inputs": [
        {
          "internalType": "address",
          "name": "_user",
          "type": "address"
        }
      ],
      "name": "getUserPermissions",
      "outputs": [
        {
          "components": [
            {
              "internalType": "uint256",
              "name": "maxAmountPerPayment",
              "type": "uint256"
            },
            {
              "internalType": "uint256",
              "name": "maxTotalAmount",
              "type": "uint256"
            },
            {
              "internalType": "uint256",
              "name": "totalSpent",
              "type": "uint256"
            },
            {
              "internalType": "bool",
              "name": "isApproved",
              "type": "bool"
            },
            {
              "internalType": "uint256",
              "name": "approvedUntil",
              "type": "uint256"
            }
          ],
          "internalType": "struct AutoRecurringPayments.UserPermissions",
          "name": "",
          "type": "tuple"
        }
      ],
      "stateMutability": "view",
      "type": "function"
    },
    {
      "inputs": [
        {
          "internalType": "address",
          "name": "_user",
          "type": "address"
        }
      ],
      "name": "getUserSchedules",
      "outputs": [
        {
          "internalType": "bytes32[]",
          "name": "",
          "type": "bytes32[]"
        }
      ],
      "stateMutability": "view",
      "type": "function"
    },
    {
      "inputs": [
        {
          "internalType": "uint256",
          "name": "_maxAmountPerPayment",
          "type": "uint256"
        },
        {
          "internalType": "uint256",
          "name": "_maxTotalAmount",
          "type": "uint256"
        },
        {
          "internalType": "uint256",
          "name": "_validForDays",
          "type": "uint256"
        }
      ],
      "name": "grantPermissions",
      "outputs": [],
      "stateMutability": "nonpayable",
      "type": "function"
    },
    {
      "inputs": [
        {
          "internalType": "bytes32",
          "name": "_scheduleId",
          "type": "bytes32"
        }
      ],
      "name": "isPaymentDue",
      "outputs": [
        {
          "internalType": "bool",
          "name": "",
          "type": "bool"
        }
      ],
      "stateMutability": "view",
      "type": "function"
    },
    {
      "inputs": [
        {
          "internalType": "bytes32",
          "name": "",
          "type": "bytes32"
        }
      ],
      "name": "lastExecutionAttempt",
      "outputs": [
        {
          "internalType": "uint256",
          "name": "",
          "type": "uint256"
        }
      ],
      "stateMutability": "view",
      "type": "function"
    },
    {
      "inputs": [],
      "name": "owner",
      "outputs": [
        {
          "internalType": "address",
          "name": "",
          "type": "address"
        }
      ],
      "stateMutability": "view",
      "type": "function"
    },
    {
      "inputs": [
        {
          "internalType": "bytes32",
          "name": "",
          "type": "bytes32"
        }
      ],
      "name": "paymentSchedules",
      "outputs": [
        {
          "internalType": "address",
          "name": "payer",
          "type": "address"
        },
        {
          "internalType": "address",
          "name": "recipient",
          "type": "address"
        },
        {
          "internalType": "uint256",
          "name": "amount",
          "type": "uint256"
        },
        {
          "internalType": "uint256",
          "name": "interval",
          "type": "uint256"
        },
        {
          "internalType": "uint256",
          "name": "nextPayment",
          "type": "uint256"
        },
        {
          "internalType": "uint256",
          "name": "maxExecutions",
          "type": "uint256"
        },
        {
          "internalType": "uint256",
          "name": "executionsLeft",
          "type": "uint256"
        },
        {
          "internalType": "bool",
          "name": "isActive",
          "type": "bool"
        },
        {
          "internalType": "uint256",
          "name": "createdAt",
          "type": "uint256"
        },
        {
          "internalType": "uint256",
          "name": "executorReward",
          "type": "uint256"
        }
      ],
      "stateMutability": "view",
      "type": "function"
    },
    {
      "inputs": [],
      "name": "renounceOwnership",
      "outputs": [],
      "stateMutability": "nonpayable",
      "type": "function"
    },
    {
      "inputs": [],
      "name": "revokePermissions",
      "outputs": [],
      "stateMutability": "nonpayable",
      "type": "function"
    },
    {
      "inputs": [],
      "name": "totalActiveSchedules",
      "outputs": [
        {
          "internalType": "uint256",
          "name": "",
          "type": "uint256"
        }
      ],
      "stateMutability": "view",
      "type": "function"
    },
    {
      "inputs": [
        {
          "internalType": "address",
          "name": "newOwner",
          "type": "address"
        }
      ],
      "name": "transferOwnership",
      "outputs": [],
      "stateMutability": "nonpayable",
      "type": "function"
    },
    {
      "inputs": [],
      "name": "usdcToken",
      "outputs": [
        {
          "internalType": "contract IERC20",
          "name": "",
          "type": "address"
        }
      ],
      "stateMutability": "view",
      "type": "function"
    },
    {
      "inputs": [
        {
          "internalType": "address",
          "name": "",
          "type": "address"
        }
      ],
      "name": "userPermissions",
      "outputs": [
        {
          "internalType": "uint256",
          "name": "maxAmountPerPayment",
          "type": "uint256"
        },
        {
          "internalType": "uint256",
          "name": "maxTotalAmount",
          "type": "uint256"
        },
        {
          "internalType": "uint256",
          "name": "totalSpent",
          "type": "uint256"
        },
        {
          "internalType": "bool",
          "name": "isApproved",
          "type": "bool"
        },
        {
          "internalType": "uint256",
          "name": "approvedUntil",
          "type": "uint256"
        }
      ],
      "stateMutability": "view",
      "type": "function"
    },
    {
      "inputs": [
        {
          "internalType": "address",
          "name": "",
          "type": "address"
        },
        {
          "internalType": "uint256",
          "name": "",
          "type": "uint256"
        }
      ],
      "name": "userSchedules",
      "outputs": [
        {
          "internalType": "bytes32",
          "name": "",
          "type": "bytes32"
        }
      ],
      "stateMutability": "view",
      "type": "function"
    }
  ],
  "bytecode": "0x608060405234801561001057600080fd5b5060405162001c4b38038062001c4b833981016040819052610031916100b3565b61003a33610063565b60018055600280546001600160a01b0319166001600160a01b03929092169190911790556100e3565b600080546001600160a01b038381166001600160a01b0319831681178455604051919092169283917f8be0079c531659141344cd1fd0a4f28419497f9722a3daafe3b4186f6b6457e09190a35050565b6000602082840312156100c557600080fd5b81516001600160a01b03811681146100dc57600080fd5b9392505050565b611b5880620000f36000396000f3fe608060405234801561001057600080fd5b50600436106101735760003560e01c8063748d9cf1116100de578063b2aab37411610097578063dfe6b5d611610071578063dfe6b5d61461049f578063e62b0a16146104cb578063f2fde38b146104d4578063fede6114146104e757600080fd5b8063b2aab37414610457578063b40b223d14610477578063c03687401461049757600080fd5b8063748d9cf11461039057806385fb9422146103a35780638da5cb5b146104115780638fa12b4e14610422578063984de324146104355780639e3f8e901461044457600080fd5b806351858e271161013057806351858e27146102785780635996fbca1461028057806367eeac331461034757806368418a5e14610356578063690af64d14610375578063715018a61461038857600080fd5b80630fe0bedb1461017857806311eac855146101a0578063179d936c146101cb57806325fde663146101ec5780633adc277a14610243578063418bb26014610263575b600080fd5b61018b61018636600461187c565b6104f2565b60405190151581526020015b60405180910390f35b6002546101b3906001600160a01b031681565b6040516001600160a01b039091168152602001610197565b6101de6101d93660046118b1565b61052f565b604051908152602001610197565b6101ff6101fa3660046118f3565b610b49565b6040516101979190600060a0820190508251825260208301516020830152604083015160408301526060830151151560608301526080830151608083015292915050565b61025661025136600461187c565b610bd7565b604051610197919061190e565b61027661027136600461187c565b610cd5565b005b61027661130d565b6102f061028e36600461187c565b600360208190526000918252604090912080546001820154600283015493830154600484015460058501546006860154600787015460088801546009909801546001600160a01b03978816999790961697949593949293919260ff909116918a565b604080516001600160a01b039b8c1681529a90991660208b0152978901969096526060880194909452608087019290925260a086015260c0850152151560e084015261010083015261012082015261014001610197565b6101de67016345785d8a000081565b610276336000908152600460205260409020600301805460ff19169055565b61027661038336600461199e565b611317565b61027661152a565b6101de61039e3660046119ca565b61153c565b6103e76103b13660046118f3565b60046020819052600091825260409091208054600182015460028301546003840154939094015491939092909160ff9091169085565b6040805195865260208601949094529284019190915215156060830152608082015260a001610197565b6000546001600160a01b03166101b3565b61027661043036600461187c565b61156e565b6101de670de0b6b3a764000081565b6101de610452366004611a03565b611666565b6101de61046536600461187c565b60066020526000908152604090205481565b61048a6104853660046118f3565b611697565b6040516101979190611a2d565b6101de600a81565b6007546002546040805183815260208101939093526001600160a01b0390911690820152606001610197565b6101de60075481565b6102766104e23660046118f3565b611703565b6101de6301e1338081565b6000818152600360205260408120600781015460ff168015610518575080600401544210155b8015610528575060008160060154115b9392505050565b60006001600160a01b0386166105805760405162461bcd60e51b8152602060048201526011602482015270125b9d985b1a59081c9958da5c1a595b9d607a1b60448201526064015b60405180910390fd5b600085116105d05760405162461bcd60e51b815260206004820152601d60248201527f416d6f756e74206d7573742062652067726561746572207468616e20300000006044820152606401610577565b600a84101580156105e557506301e133808411155b6106245760405162461bcd60e51b815260206004820152601060248201526f125b9d985b1a59081a5b9d195c9d985b60821b6044820152606401610577565b60008311801561063657506103e88311155b61067b5760405162461bcd60e51b8152602060048201526016602482015275496e76616c6964206d617820657865637574696f6e7360501b6044820152606401610577565b67016345785d8a00008210156106d35760405162461bcd60e51b815260206004820152601760248201527f4578656375746f722072657761726420746f6f206c6f770000000000000000006044820152606401610577565b336000908152600460205260409020600381015460ff166107365760405162461bcd60e51b815260206004820152601760248201527f5065726d697373696f6e73206e6f74206772616e7465640000000000000000006044820152606401610577565b80600401544211156107805760405162461bcd60e51b815260206004820152601360248201527214195c9b5a5cdcda5bdb9cc8195e1c1a5c9959606a1b6044820152606401610577565b80548611156107d15760405162461bcd60e51b815260206004820181905260248201527f416d6f756e742065786365656473207065722d7061796d656e74206c696d69746044820152606401610577565b60006107dd8588611a87565b905060006107eb8686611a87565b905060006107f98284611aa4565b905083600101548385600201546108109190611aa4565b11156108685760405162461bcd60e51b815260206004820152602160248201527f576f756c642065786365656420746f74616c207370656e64696e67206c696d696044820152601d60fa1b6064820152608401610577565b600254604051636eb1769f60e11b815233600482015230602482015282916001600160a01b03169063dd62ed3e90604401602060405180830381865afa1580156108b6573d6000803e3d6000fd5b505050506040513d601f19601f820116820180604052508101906108da9190611ab7565b10156109455760405162461bcd60e51b815260206004820152603460248201527f496e73756666696369656e74205553444320616c6c6f77616e636520666f72206044820152737061796d656e747320616e64207265776172647360601b6064820152608401610577565b6040516bffffffffffffffffffffffff1933606090811b821660208401528c901b166034820152604881018a90526068810189905242608882015260a8810187905260009060c801604051602081830303815290604052805190602001209050604051806101400160405280336001600160a01b031681526020018c6001600160a01b031681526020018b81526020018a81526020018a426109e79190611aa4565b815260208082018b905260408083018c9052600160608085018290524260808087019190915260a09586018e905260008881526003808752858220895181546001600160a01b039182166001600160a01b03199182161783558b8a0151838901805491909316911617905589870151600282015593890151908401559087015160048301559486015160058083019190915560c0870151600683015560e08701516007808401805492151560ff199093169290921790915561010088015160088401556101209097015160099092019190915533855283529083208054918201815583529082200183905581549190610adf83611ad0565b9091555050604080518b8152602081018b9052908101899052606081018890526001600160a01b038c1690339083907f9e3310490265336ee8a280c467dab1d89100cbc7d0035e4e7de2f49d8901d2329060800160405180910390a49a9950505050505050505050565b610b7d6040518060a00160405280600081526020016000815260200160008152602001600015158152602001600081525090565b506001600160a01b0316600090815260046020818152604092839020835160a08101855281548152600182015492810192909252600281015493820193909352600383015460ff1615156060820152910154608082015290565b610c4160405180610140016040528060006001600160a01b0316815260200160006001600160a01b03168152602001600081526020016000815260200160008152602001600081526020016000815260200160001515815260200160008152602001600081525090565b5060009081526003602081815260409283902083516101408101855281546001600160a01b0390811682526001830154169281019290925260028101549382019390935290820154606082015260048201546080820152600582015460a0820152600682015460c0820152600782015460ff16151560e0820152600882015461010082015260099091015461012082015290565b610cdd611779565b6000818152600360205260409020600781015460ff16610d355760405162461bcd60e51b81526020600482015260136024820152725363686564756c65206e6f742061637469766560681b6044820152606401610577565b8060040154421015610d7f5760405162461bcd60e51b815260206004820152601360248201527214185e5b595b9d081b9bdd08191d59481e595d606a1b6044820152606401610577565b6000816006015411610dc85760405162461bcd60e51b8152602060048201526012602482015271139bc8195e1958dd5d1a5bdb9cc81b19599d60721b6044820152606401610577565b600082815260066020526040902054610de290600a611aa4565b421015610e315760405162461bcd60e51b815260206004820152601f60248201527f546f6f206672657175656e7420657865637574696f6e20617474656d707473006044820152606401610577565b600082815260066020908152604080832042905583546001600160a01b0316835260049091529020600381015460ff16610ead5760405162461bcd60e51b815260206004820152601860248201527f55736572207065726d697373696f6e73207265766f6b656400000000000000006044820152606401610577565b8060040154421115610f015760405162461bcd60e51b815260206004820152601860248201527f55736572207065726d697373696f6e73206578706972656400000000000000006044820152606401610577565b806001015482600201548260020154610f1a9190611aa4565b1115610f685760405162461bcd60e51b815260206004820152601f60248201527f576f756c64206578636565642075736572277320746f74616c206c696d6974006044820152606401610577565b600082600901548360020154610f7e9190611aa4565b6002548454604051636eb1769f60e11b81526001600160a01b039182166004820152306024820152929350839291169063dd62ed3e90604401602060405180830381865afa158015610fd4573d6000803e3d6000fd5b505050506040513d601f19601f82011682018060405250810190610ff89190611ab7565b10156110465760405162461bcd60e51b815260206004820152601b60248201527f496e73756666696369656e74205553444320616c6c6f77616e636500000000006044820152606401610577565b6002805484546001860154928601546040516323b872dd60e01b81526001600160a01b0392831660048201529382166024850152604484015216906323b872dd906064016020604051808303816000875af11580156110a9573d6000803e3d6000fd5b505050506040513d601f19601f820116820180604052508101906110cd9190611ae9565b6111195760405162461bcd60e51b815260206004820152601760248201527f5061796d656e74207472616e73666572206661696c65640000000000000000006044820152606401610577565b600254835460098501546040516323b872dd60e01b81526001600160a01b03928316600482015233602482015260448101919091529116906323b872dd906064016020604051808303816000875af1158015611179573d6000803e3d6000fd5b505050506040513d601f19601f8201168201806040525081019061119d9190611ae9565b6111e95760405162461bcd60e51b815260206004820152601f60248201527f4578656375746f7220726577617264207472616e73666572206661696c6564006044820152606401610577565b82600201548260020160008282546112019190611aa4565b909155505060068301805490600061121883611b0b565b9091555050600383015461122c9042611aa4565b6004840155600683015460000361125e576007808401805460ff19169055805490600061125883611b0b565b91905055505b6001830154835460028501546009860154604080519283523360208401528201526001600160a01b03928316929091169086907fae71efc920e0b0b0e2021bc030c5beabf02db99d81722087af10aa0ddb0d78a29060600160405180910390a46009830154604080519182526020820186905233917fd61366382a077f22e937039d8f3cdd40a227756055f56cc48dfe0a6027192fe0910160405180910390a250505061130a60018055565b50565b6113156117d2565b565b600083116113715760405162461bcd60e51b815260206004820152602160248201527f4d617820616d6f756e74206d7573742062652067726561746572207468616e206044820152600360fc1b6064820152608401610577565b828210156113d45760405162461bcd60e51b815260206004820152602a60248201527f546f74616c20616d6f756e74206d757374206265203e3d20706572207061796d604482015269195b9d08185b5bdd5b9d60b21b6064820152608401610577565b6000811180156113e6575061016d8111155b61143e5760405162461bcd60e51b8152602060048201526024808201527f56616c69642064617973206d757374206265206265747765656e203120616e646044820152632033363560e01b6064820152608401610577565b6040518060a001604052808481526020018381526020016000815260200160011515815260200182620151806114749190611a87565b61147e9042611aa4565b90523360008181526004602081815260409283902085518155908501516001820155918401516002830155606084015160038301805460ff19169115159190911790556080909301519201919091557f96587ab88ed3ebff489cfa48cc780eaa8e16b96c7f1511fda778c7470eb7924684846114fd8562015180611a87565b6115079042611aa4565b6040805193845260208401929092529082015260600160405180910390a2505050565b6115326117d2565b611315600061182c565b6000611546611779565b61155b85858585670de0b6b3a764000061052f565b905061156660018055565b949350505050565b600081815260036020526040902080546001600160a01b031633146115cd5760405162461bcd60e51b815260206004820152601560248201527413db9b1e481c185e595c8818d85b8818d85b98d95b605a1b6044820152606401610577565b600781015460ff166116175760405162461bcd60e51b81526020600482015260136024820152725363686564756c65206e6f742061637469766560681b6044820152606401610577565b6007808201805460ff19169055805490600061163283611b0b565b909155505060405182907fb1fcd4ef2f49f6585853d2307d8dac13baba14ca31a5bb8d9c10774b6ef177c990600090a25050565b6005602052816000526040600020818154811061168257600080fd5b90600052602060002001600091509150505481565b6001600160a01b0381166000908152600560209081526040918290208054835181840281018401909452808452606093928301828280156116f757602002820191906000526020600020905b8154815260200190600101908083116116e3575b50505050509050919050565b61170b6117d2565b6001600160a01b0381166117705760405162461bcd60e51b815260206004820152602660248201527f4f776e61626c653a206e6577206f776e657220697320746865207a65726f206160448201526564647265737360d01b6064820152608401610577565b61130a8161182c565b6002600154036117cb5760405162461bcd60e51b815260206004820152601f60248201527f5265656e7472616e637947756172643a207265656e7472616e742063616c6c006044820152606401610577565b6002600155565b6000546001600160a01b031633146113155760405162461bcd60e51b815260206004820181905260248201527f4f776e61626c653a2063616c6c6572206973206e6f7420746865206f776e65726044820152606401610577565b600080546001600160a01b038381166001600160a01b0319831681178455604051919092169283917f8be0079c531659141344cd1fd0a4f28419497f9722a3daafe3b4186f6b6457e09190a35050565b60006020828403121561188e57600080fd5b5035919050565b80356001600160a01b03811681146118ac57600080fd5b919050565b600080600080600060a086880312156118c957600080fd5b6118d286611895565b97602087013597506040870135966060810135965060800135945092505050565b60006020828403121561190557600080fd5b61052882611895565b81516001600160a01b031681526101408101602083015161193a60208401826001600160a01b03169052565b5060408301516040830152606083015160608301526080830151608083015260a083015160a083015260c083015160c083015260e083015161198060e084018215159052565b50610100838101519083015261012092830151929091019190915290565b6000806000606084860312156119b357600080fd5b505081359360208301359350604090920135919050565b600080600080608085870312156119e057600080fd5b6119e985611895565b966020860135965060408601359560600135945092505050565b60008060408385031215611a1657600080fd5b611a1f83611895565b946020939093013593505050565b6020808252825182820181905260009190848201906040850190845b81811015611a6557835183529284019291840191600101611a49565b50909695505050505050565b634e487b7160e01b600052601160045260246000fd5b8082028115828204841417611a9e57611a9e611a71565b92915050565b80820180821115611a9e57611a9e611a71565b600060208284031215611ac957600080fd5b5051919050565b600060018201611ae257611ae2611a71565b5060010190565b600060208284031215611afb57600080fd5b8151801515811461052857600080fd5b600081611b1a57611b1a611a71565b50600019019056fea2646970667358221220647ed7bbcaab4b165ed175a0f45b080915deeab98229940ea089d2379d4d008a64736f6c63430008130033",
  "linkReferences": {},
  "deployedLinkReferences": {}
}